{
	"contracts/criptoKids.sol": {
		"CryptoKids": {
			"abi": [
				{
					"inputs": [],
					"stateMutability": "nonpayable",
					"type": "constructor"
				},
				{
					"anonymous": false,
					"inputs": [
						{
							"indexed": false,
							"internalType": "address",
							"name": "addr",
							"type": "address"
						},
						{
							"indexed": false,
							"internalType": "uint256",
							"name": "amount",
							"type": "uint256"
						},
						{
							"indexed": false,
							"internalType": "uint256",
							"name": "contractBalance",
							"type": "uint256"
						}
					],
					"name": "LogKidFundingReceived",
					"type": "event"
				},
				{
					"inputs": [
						{
							"internalType": "address payable",
							"name": "walletAddress",
							"type": "address"
						},
						{
							"internalType": "string",
							"name": "firstName",
							"type": "string"
						},
						{
							"internalType": "string",
							"name": "lastName",
							"type": "string"
						},
						{
							"internalType": "uint256",
							"name": "releaseTime",
							"type": "uint256"
						},
						{
							"internalType": "uint256",
							"name": "amount",
							"type": "uint256"
						},
						{
							"internalType": "bool",
							"name": "canWithdraw",
							"type": "bool"
						}
					],
					"name": "addKid",
					"outputs": [],
					"stateMutability": "nonpayable",
					"type": "function"
				},
				{
					"inputs": [
						{
							"internalType": "address",
							"name": "walletAddress",
							"type": "address"
						}
					],
					"name": "availableToWithdraw",
					"outputs": [
						{
							"internalType": "bool",
							"name": "",
							"type": "bool"
						}
					],
					"stateMutability": "nonpayable",
					"type": "function"
				},
				{
					"inputs": [],
					"name": "balanceOf",
					"outputs": [
						{
							"internalType": "uint256",
							"name": "",
							"type": "uint256"
						}
					],
					"stateMutability": "view",
					"type": "function"
				},
				{
					"inputs": [
						{
							"internalType": "address",
							"name": "walletAddress",
							"type": "address"
						}
					],
					"name": "deposit",
					"outputs": [],
					"stateMutability": "payable",
					"type": "function"
				},
				{
					"inputs": [
						{
							"internalType": "uint256",
							"name": "",
							"type": "uint256"
						}
					],
					"name": "kids",
					"outputs": [
						{
							"internalType": "address payable",
							"name": "walletAddress",
							"type": "address"
						},
						{
							"internalType": "string",
							"name": "firstName",
							"type": "string"
						},
						{
							"internalType": "string",
							"name": "lastName",
							"type": "string"
						},
						{
							"internalType": "uint256",
							"name": "releaseTime",
							"type": "uint256"
						},
						{
							"internalType": "uint256",
							"name": "amount",
							"type": "uint256"
						},
						{
							"internalType": "bool",
							"name": "canWithdraw",
							"type": "bool"
						}
					],
					"stateMutability": "view",
					"type": "function"
				},
				{
					"inputs": [
						{
							"internalType": "address payable",
							"name": "walletAddress",
							"type": "address"
						}
					],
					"name": "withdraw",
					"outputs": [],
					"stateMutability": "payable",
					"type": "function"
				}
			],
			"devdoc": {
				"kind": "dev",
				"methods": {},
				"version": 1
			},
			"evm": {
				"assembly": "    /* \"contracts/criptoKids.sol\":67:2753  contract CryptoKids{\r... */\n  mstore(0x40, 0x80)\n    /* \"contracts/criptoKids.sol\":235:284  constructor (){\r... */\n  callvalue\n  dup1\n  iszero\n  tag_1\n  jumpi\n  0x00\n  dup1\n  revert\ntag_1:\n  pop\n    /* \"contracts/criptoKids.sol\":267:277  msg.sender */\n  caller\n    /* \"contracts/criptoKids.sol\":259:264  owner */\n  0x00\n  dup1\n    /* \"contracts/criptoKids.sol\":259:277  owner = msg.sender */\n  0x0100\n  exp\n  dup2\n  sload\n  dup2\n  0xffffffffffffffffffffffffffffffffffffffff\n  mul\n  not\n  and\n  swap1\n  dup4\n  0xffffffffffffffffffffffffffffffffffffffff\n  and\n  mul\n  or\n  swap1\n  sstore\n  pop\n    /* \"contracts/criptoKids.sol\":67:2753  contract CryptoKids{\r... */\n  dataSize(sub_0)\n  dup1\n  dataOffset(sub_0)\n  0x00\n  codecopy\n  0x00\n  return\nstop\n\nsub_0: assembly {\n        /* \"contracts/criptoKids.sol\":67:2753  contract CryptoKids{\r... */\n      mstore(0x40, 0x80)\n      jumpi(tag_1, lt(calldatasize, 0x04))\n      shr(0xe0, calldataload(0x00))\n      dup1\n      0x31d575c5\n      eq\n      tag_2\n      jumpi\n      dup1\n      0x51cff8d9\n      eq\n      tag_3\n      jumpi\n      dup1\n      0x722713f7\n      eq\n      tag_4\n      jumpi\n      dup1\n      0x7285fd3a\n      eq\n      tag_5\n      jumpi\n      dup1\n      0xa25db8ce\n      eq\n      tag_6\n      jumpi\n      dup1\n      0xf340fa01\n      eq\n      tag_7\n      jumpi\n    tag_1:\n      0x00\n      dup1\n      revert\n        /* \"contracts/criptoKids.sol\":669:1035  function addKid(\r... */\n    tag_2:\n      callvalue\n      dup1\n      iszero\n      tag_8\n      jumpi\n      0x00\n      dup1\n      revert\n    tag_8:\n      pop\n      tag_9\n      0x04\n      dup1\n      calldatasize\n      sub\n      dup2\n      add\n      swap1\n      tag_10\n      swap2\n      swap1\n      tag_11\n      jump\t// in\n    tag_10:\n      tag_12\n      jump\t// in\n    tag_9:\n      stop\n        /* \"contracts/criptoKids.sol\":2411:2750  function withdraw(address payable walletAddress) payable public {\r... */\n    tag_3:\n      tag_13\n      0x04\n      dup1\n      calldatasize\n      sub\n      dup2\n      add\n      swap1\n      tag_14\n      swap2\n      swap1\n      tag_15\n      jump\t// in\n    tag_14:\n      tag_16\n      jump\t// in\n    tag_13:\n      stop\n        /* \"contracts/criptoKids.sol\":1204:1291  function balanceOf() public view returns(uint){\r... */\n    tag_4:\n      callvalue\n      dup1\n      iszero\n      tag_17\n      jumpi\n      0x00\n      dup1\n      revert\n    tag_17:\n      pop\n      tag_18\n      tag_19\n      jump\t// in\n    tag_18:\n      mload(0x40)\n      tag_20\n      swap2\n      swap1\n      tag_21\n      jump\t// in\n    tag_20:\n      mload(0x40)\n      dup1\n      swap2\n      sub\n      swap1\n      return\n        /* \"contracts/criptoKids.sol\":510:527  Kid[] public kids */\n    tag_5:\n      callvalue\n      dup1\n      iszero\n      tag_22\n      jumpi\n      0x00\n      dup1\n      revert\n    tag_22:\n      pop\n      tag_23\n      0x04\n      dup1\n      calldatasize\n      sub\n      dup2\n      add\n      swap1\n      tag_24\n      swap2\n      swap1\n      tag_25\n      jump\t// in\n    tag_24:\n      tag_26\n      jump\t// in\n    tag_23:\n      mload(0x40)\n      tag_27\n      swap7\n      swap6\n      swap5\n      swap4\n      swap3\n      swap2\n      swap1\n      tag_28\n      jump\t// in\n    tag_27:\n      mload(0x40)\n      dup1\n      swap2\n      sub\n      swap1\n      return\n        /* \"contracts/criptoKids.sol\":2043:2385  function availableToWithdraw(address walletAddress) public returns(bool){\r... */\n    tag_6:\n      callvalue\n      dup1\n      iszero\n      tag_29\n      jumpi\n      0x00\n      dup1\n      revert\n    tag_29:\n      pop\n      tag_30\n      0x04\n      dup1\n      calldatasize\n      sub\n      dup2\n      add\n      swap1\n      tag_31\n      swap2\n      swap1\n      tag_32\n      jump\t// in\n    tag_31:\n      tag_33\n      jump\t// in\n    tag_30:\n      mload(0x40)\n      tag_34\n      swap2\n      swap1\n      tag_35\n      jump\t// in\n    tag_34:\n      mload(0x40)\n      dup1\n      swap2\n      sub\n      swap1\n      return\n        /* \"contracts/criptoKids.sol\":1352:1458  function deposit (address walletAddress) payable public {\r... */\n    tag_7:\n      tag_36\n      0x04\n      dup1\n      calldatasize\n      sub\n      dup2\n      add\n      swap1\n      tag_37\n      swap2\n      swap1\n      tag_32\n      jump\t// in\n    tag_37:\n      tag_38\n      jump\t// in\n    tag_36:\n      stop\n        /* \"contracts/criptoKids.sol\":669:1035  function addKid(\r... */\n    tag_12:\n        /* \"contracts/criptoKids.sol\":581:586  owner */\n      0x00\n      dup1\n      sload\n      swap1\n      0x0100\n      exp\n      swap1\n      div\n      0xffffffffffffffffffffffffffffffffffffffff\n      and\n        /* \"contracts/criptoKids.sol\":567:586  msg.sender == owner */\n      0xffffffffffffffffffffffffffffffffffffffff\n      and\n        /* \"contracts/criptoKids.sol\":567:577  msg.sender */\n      caller\n        /* \"contracts/criptoKids.sol\":567:586  msg.sender == owner */\n      0xffffffffffffffffffffffffffffffffffffffff\n      and\n      eq\n        /* \"contracts/criptoKids.sol\":559:618  require(msg.sender == owner, \"Only the owner can add kids\") */\n      tag_40\n      jumpi\n      mload(0x40)\n      0x08c379a000000000000000000000000000000000000000000000000000000000\n      dup2\n      mstore\n      0x04\n      add\n      tag_41\n      swap1\n      tag_42\n      jump\t// in\n    tag_41:\n      mload(0x40)\n      dup1\n      swap2\n      sub\n      swap1\n      revert\n    tag_40:\n        /* \"contracts/criptoKids.sol\":853:857  kids */\n      0x01\n        /* \"contracts/criptoKids.sol\":863:1030  Kid(\r... */\n      mload(0x40)\n      dup1\n      0xc0\n      add\n      0x40\n      mstore\n      dup1\n        /* \"contracts/criptoKids.sol\":881:894  walletAddress */\n      dup9\n        /* \"contracts/criptoKids.sol\":863:1030  Kid(\r... */\n      0xffffffffffffffffffffffffffffffffffffffff\n      and\n      dup2\n      mstore\n      0x20\n      add\n        /* \"contracts/criptoKids.sol\":910:919  firstName */\n      dup8\n        /* \"contracts/criptoKids.sol\":863:1030  Kid(\r... */\n      dup2\n      mstore\n      0x20\n      add\n        /* \"contracts/criptoKids.sol\":935:943  lastName */\n      dup7\n        /* \"contracts/criptoKids.sol\":863:1030  Kid(\r... */\n      dup2\n      mstore\n      0x20\n      add\n        /* \"contracts/criptoKids.sol\":959:970  releaseTime */\n      dup6\n        /* \"contracts/criptoKids.sol\":863:1030  Kid(\r... */\n      dup2\n      mstore\n      0x20\n      add\n        /* \"contracts/criptoKids.sol\":986:992  amount */\n      dup5\n        /* \"contracts/criptoKids.sol\":863:1030  Kid(\r... */\n      dup2\n      mstore\n      0x20\n      add\n        /* \"contracts/criptoKids.sol\":1008:1019  canWithdraw */\n      dup4\n        /* \"contracts/criptoKids.sol\":863:1030  Kid(\r... */\n      iszero\n      iszero\n      dup2\n      mstore\n      pop\n        /* \"contracts/criptoKids.sol\":853:1031  kids.push(Kid(\r... */\n      swap1\n      dup1\n      0x01\n      dup2\n      sload\n      add\n      dup1\n      dup3\n      sstore\n      dup1\n      swap2\n      pop\n      pop\n      0x01\n      swap1\n      sub\n      swap1\n      0x00\n      mstore\n      keccak256(0x00, 0x20)\n      swap1\n      0x06\n      mul\n      add\n      0x00\n      swap1\n      swap2\n      swap1\n      swap2\n      swap1\n      swap2\n      pop\n      0x00\n      dup3\n      add\n      mload\n      dup2\n      0x00\n      add\n      exp(0x0100, 0x00)\n      dup2\n      sload\n      dup2\n      0xffffffffffffffffffffffffffffffffffffffff\n      mul\n      not\n      and\n      swap1\n      dup4\n      0xffffffffffffffffffffffffffffffffffffffff\n      and\n      mul\n      or\n      swap1\n      sstore\n      pop\n      0x20\n      dup3\n      add\n      mload\n      dup2\n      0x01\n      add\n      swap1\n      dup1\n      mload\n      swap1\n      0x20\n      add\n      swap1\n      tag_45\n      swap3\n      swap2\n      swap1\n      tag_46\n      jump\t// in\n    tag_45:\n      pop\n      0x40\n      dup3\n      add\n      mload\n      dup2\n      0x02\n      add\n      swap1\n      dup1\n      mload\n      swap1\n      0x20\n      add\n      swap1\n      tag_47\n      swap3\n      swap2\n      swap1\n      tag_46\n      jump\t// in\n    tag_47:\n      pop\n      0x60\n      dup3\n      add\n      mload\n      dup2\n      0x03\n      add\n      sstore\n      0x80\n      dup3\n      add\n      mload\n      dup2\n      0x04\n      add\n      sstore\n      0xa0\n      dup3\n      add\n      mload\n      dup2\n      0x05\n      add\n      exp(0x0100, 0x00)\n      dup2\n      sload\n      dup2\n      0xff\n      mul\n      not\n      and\n      swap1\n      dup4\n      iszero\n      iszero\n      mul\n      or\n      swap1\n      sstore\n      pop\n      pop\n      pop\n        /* \"contracts/criptoKids.sol\":669:1035  function addKid(\r... */\n      pop\n      pop\n      pop\n      pop\n      pop\n      pop\n      jump\t// out\n        /* \"contracts/criptoKids.sol\":2411:2750  function withdraw(address payable walletAddress) payable public {\r... */\n    tag_16:\n        /* \"contracts/criptoKids.sol\":2482:2488  uint i */\n      0x00\n        /* \"contracts/criptoKids.sol\":2491:2514  getIndex(walletAddress) */\n      tag_49\n        /* \"contracts/criptoKids.sol\":2500:2513  walletAddress */\n      dup3\n        /* \"contracts/criptoKids.sol\":2491:2499  getIndex */\n      tag_50\n        /* \"contracts/criptoKids.sol\":2491:2514  getIndex(walletAddress) */\n      jump\t// in\n    tag_49:\n        /* \"contracts/criptoKids.sol\":2482:2514  uint i = getIndex(walletAddress) */\n      swap1\n      pop\n        /* \"contracts/criptoKids.sol\":2543:2547  kids */\n      0x01\n        /* \"contracts/criptoKids.sol\":2548:2549  i */\n      dup2\n        /* \"contracts/criptoKids.sol\":2543:2550  kids[i] */\n      dup2\n      sload\n      dup2\n      lt\n      tag_51\n      jumpi\n      tag_52\n      tag_53\n      jump\t// in\n    tag_52:\n    tag_51:\n      swap1\n      0x00\n      mstore\n      keccak256(0x00, 0x20)\n      swap1\n      0x06\n      mul\n      add\n        /* \"contracts/criptoKids.sol\":2543:2564  kids[i].walletAddress */\n      0x00\n      add\n      0x00\n      swap1\n      sload\n      swap1\n      0x0100\n      exp\n      swap1\n      div\n      0xffffffffffffffffffffffffffffffffffffffff\n      and\n        /* \"contracts/criptoKids.sol\":2529:2564  msg.sender == kids[i].walletAddress */\n      0xffffffffffffffffffffffffffffffffffffffff\n      and\n        /* \"contracts/criptoKids.sol\":2529:2539  msg.sender */\n      caller\n        /* \"contracts/criptoKids.sol\":2529:2564  msg.sender == kids[i].walletAddress */\n      0xffffffffffffffffffffffffffffffffffffffff\n      and\n      eq\n        /* \"contracts/criptoKids.sol\":2521:2605  require(msg.sender == kids[i].walletAddress, \"You can't withraw someone else money\") */\n      tag_55\n      jumpi\n      mload(0x40)\n      0x08c379a000000000000000000000000000000000000000000000000000000000\n      dup2\n      mstore\n      0x04\n      add\n      tag_56\n      swap1\n      tag_57\n      jump\t// in\n    tag_56:\n      mload(0x40)\n      dup1\n      swap2\n      sub\n      swap1\n      revert\n    tag_55:\n        /* \"contracts/criptoKids.sol\":2643:2647  true */\n      0x01\n        /* \"contracts/criptoKids.sol\":2620:2647  kids[i].canWithdraw == true */\n      iszero\n      iszero\n        /* \"contracts/criptoKids.sol\":2620:2624  kids */\n      0x01\n        /* \"contracts/criptoKids.sol\":2625:2626  i */\n      dup3\n        /* \"contracts/criptoKids.sol\":2620:2627  kids[i] */\n      dup2\n      sload\n      dup2\n      lt\n      tag_58\n      jumpi\n      tag_59\n      tag_53\n      jump\t// in\n    tag_59:\n    tag_58:\n      swap1\n      0x00\n      mstore\n      keccak256(0x00, 0x20)\n      swap1\n      0x06\n      mul\n      add\n        /* \"contracts/criptoKids.sol\":2620:2639  kids[i].canWithdraw */\n      0x05\n      add\n      0x00\n      swap1\n      sload\n      swap1\n      0x0100\n      exp\n      swap1\n      div\n      0xff\n      and\n        /* \"contracts/criptoKids.sol\":2620:2647  kids[i].canWithdraw == true */\n      iszero\n      iszero\n      eq\n        /* \"contracts/criptoKids.sol\":2612:2693  require(kids[i].canWithdraw == true, \"You are not able to withdraw at this time\") */\n      tag_61\n      jumpi\n      mload(0x40)\n      0x08c379a000000000000000000000000000000000000000000000000000000000\n      dup2\n      mstore\n      0x04\n      add\n      tag_62\n      swap1\n      tag_63\n      jump\t// in\n    tag_62:\n      mload(0x40)\n      dup1\n      swap2\n      sub\n      swap1\n      revert\n    tag_61:\n        /* \"contracts/criptoKids.sol\":2700:2704  kids */\n      0x01\n        /* \"contracts/criptoKids.sol\":2705:2706  i */\n      dup2\n        /* \"contracts/criptoKids.sol\":2700:2707  kids[i] */\n      dup2\n      sload\n      dup2\n      lt\n      tag_64\n      jumpi\n      tag_65\n      tag_53\n      jump\t// in\n    tag_65:\n    tag_64:\n      swap1\n      0x00\n      mstore\n      keccak256(0x00, 0x20)\n      swap1\n      0x06\n      mul\n      add\n        /* \"contracts/criptoKids.sol\":2700:2721  kids[i].walletAddress */\n      0x00\n      add\n      0x00\n      swap1\n      sload\n      swap1\n      0x0100\n      exp\n      swap1\n      div\n      0xffffffffffffffffffffffffffffffffffffffff\n      and\n        /* \"contracts/criptoKids.sol\":2700:2730  kids[i].walletAddress.transfer */\n      0xffffffffffffffffffffffffffffffffffffffff\n      and\n        /* \"contracts/criptoKids.sol\":2700:2746  kids[i].walletAddress.transfer(kids[i].amount) */\n      0x08fc\n        /* \"contracts/criptoKids.sol\":2731:2735  kids */\n      0x01\n        /* \"contracts/criptoKids.sol\":2736:2737  i */\n      dup4\n        /* \"contracts/criptoKids.sol\":2731:2738  kids[i] */\n      dup2\n      sload\n      dup2\n      lt\n      tag_67\n      jumpi\n      tag_68\n      tag_53\n      jump\t// in\n    tag_68:\n    tag_67:\n      swap1\n      0x00\n      mstore\n      keccak256(0x00, 0x20)\n      swap1\n      0x06\n      mul\n      add\n        /* \"contracts/criptoKids.sol\":2731:2745  kids[i].amount */\n      0x04\n      add\n      sload\n        /* \"contracts/criptoKids.sol\":2700:2746  kids[i].walletAddress.transfer(kids[i].amount) */\n      swap1\n      dup2\n      iszero\n      mul\n      swap1\n      mload(0x40)\n      0x00\n      mload(0x40)\n      dup1\n      dup4\n      sub\n      dup2\n      dup6\n      dup9\n      dup9\n      call\n      swap4\n      pop\n      pop\n      pop\n      pop\n      iszero\n      dup1\n      iszero\n      tag_71\n      jumpi\n      returndatasize\n      0x00\n      dup1\n      returndatacopy\n      revert(0x00, returndatasize)\n    tag_71:\n      pop\n        /* \"contracts/criptoKids.sol\":2475:2750  {\r... */\n      pop\n        /* \"contracts/criptoKids.sol\":2411:2750  function withdraw(address payable walletAddress) payable public {\r... */\n      pop\n      jump\t// out\n        /* \"contracts/criptoKids.sol\":1204:1291  function balanceOf() public view returns(uint){\r... */\n    tag_19:\n        /* \"contracts/criptoKids.sol\":1245:1249  uint */\n      0x00\n        /* \"contracts/criptoKids.sol\":1265:1286  address(this).balance */\n      selfbalance\n        /* \"contracts/criptoKids.sol\":1258:1286  return address(this).balance */\n      swap1\n      pop\n        /* \"contracts/criptoKids.sol\":1204:1291  function balanceOf() public view returns(uint){\r... */\n      swap1\n      jump\t// out\n        /* \"contracts/criptoKids.sol\":510:527  Kid[] public kids */\n    tag_26:\n      0x01\n      dup2\n      dup2\n      sload\n      dup2\n      lt\n      tag_73\n      jumpi\n      0x00\n      dup1\n      revert\n    tag_73:\n      swap1\n      0x00\n      mstore\n      keccak256(0x00, 0x20)\n      swap1\n      0x06\n      mul\n      add\n      0x00\n      swap2\n      pop\n      swap1\n      pop\n      dup1\n      0x00\n      add\n      0x00\n      swap1\n      sload\n      swap1\n      0x0100\n      exp\n      swap1\n      div\n      0xffffffffffffffffffffffffffffffffffffffff\n      and\n      swap1\n      dup1\n      0x01\n      add\n      dup1\n      sload\n      tag_75\n      swap1\n      tag_76\n      jump\t// in\n    tag_75:\n      dup1\n      0x1f\n      add\n      0x20\n      dup1\n      swap2\n      div\n      mul\n      0x20\n      add\n      mload(0x40)\n      swap1\n      dup2\n      add\n      0x40\n      mstore\n      dup1\n      swap3\n      swap2\n      swap1\n      dup2\n      dup2\n      mstore\n      0x20\n      add\n      dup3\n      dup1\n      sload\n      tag_77\n      swap1\n      tag_76\n      jump\t// in\n    tag_77:\n      dup1\n      iszero\n      tag_78\n      jumpi\n      dup1\n      0x1f\n      lt\n      tag_79\n      jumpi\n      0x0100\n      dup1\n      dup4\n      sload\n      div\n      mul\n      dup4\n      mstore\n      swap2\n      0x20\n      add\n      swap2\n      jump(tag_78)\n    tag_79:\n      dup3\n      add\n      swap2\n      swap1\n      0x00\n      mstore\n      keccak256(0x00, 0x20)\n      swap1\n    tag_80:\n      dup2\n      sload\n      dup2\n      mstore\n      swap1\n      0x01\n      add\n      swap1\n      0x20\n      add\n      dup1\n      dup4\n      gt\n      tag_80\n      jumpi\n      dup3\n      swap1\n      sub\n      0x1f\n      and\n      dup3\n      add\n      swap2\n    tag_78:\n      pop\n      pop\n      pop\n      pop\n      pop\n      swap1\n      dup1\n      0x02\n      add\n      dup1\n      sload\n      tag_81\n      swap1\n      tag_76\n      jump\t// in\n    tag_81:\n      dup1\n      0x1f\n      add\n      0x20\n      dup1\n      swap2\n      div\n      mul\n      0x20\n      add\n      mload(0x40)\n      swap1\n      dup2\n      add\n      0x40\n      mstore\n      dup1\n      swap3\n      swap2\n      swap1\n      dup2\n      dup2\n      mstore\n      0x20\n      add\n      dup3\n      dup1\n      sload\n      tag_82\n      swap1\n      tag_76\n      jump\t// in\n    tag_82:\n      dup1\n      iszero\n      tag_83\n      jumpi\n      dup1\n      0x1f\n      lt\n      tag_84\n      jumpi\n      0x0100\n      dup1\n      dup4\n      sload\n      div\n      mul\n      dup4\n      mstore\n      swap2\n      0x20\n      add\n      swap2\n      jump(tag_83)\n    tag_84:\n      dup3\n      add\n      swap2\n      swap1\n      0x00\n      mstore\n      keccak256(0x00, 0x20)\n      swap1\n    tag_85:\n      dup2\n      sload\n      dup2\n      mstore\n      swap1\n      0x01\n      add\n      swap1\n      0x20\n      add\n      dup1\n      dup4\n      gt\n      tag_85\n      jumpi\n      dup3\n      swap1\n      sub\n      0x1f\n      and\n      dup3\n      add\n      swap2\n    tag_83:\n      pop\n      pop\n      pop\n      pop\n      pop\n      swap1\n      dup1\n      0x03\n      add\n      sload\n      swap1\n      dup1\n      0x04\n      add\n      sload\n      swap1\n      dup1\n      0x05\n      add\n      0x00\n      swap1\n      sload\n      swap1\n      0x0100\n      exp\n      swap1\n      div\n      0xff\n      and\n      swap1\n      pop\n      dup7\n      jump\t// out\n        /* \"contracts/criptoKids.sol\":2043:2385  function availableToWithdraw(address walletAddress) public returns(bool){\r... */\n    tag_33:\n        /* \"contracts/criptoKids.sol\":2110:2114  bool */\n      0x00\n        /* \"contracts/criptoKids.sol\":2122:2128  uint i */\n      dup1\n        /* \"contracts/criptoKids.sol\":2131:2154  getIndex(walletAddress) */\n      tag_87\n        /* \"contracts/criptoKids.sol\":2140:2153  walletAddress */\n      dup4\n        /* \"contracts/criptoKids.sol\":2131:2139  getIndex */\n      tag_50\n        /* \"contracts/criptoKids.sol\":2131:2154  getIndex(walletAddress) */\n      jump\t// in\n    tag_87:\n        /* \"contracts/criptoKids.sol\":2122:2154  uint i = getIndex(walletAddress) */\n      swap1\n      pop\n        /* \"contracts/criptoKids.sol\":2185:2189  kids */\n      0x01\n        /* \"contracts/criptoKids.sol\":2190:2191  i */\n      dup2\n        /* \"contracts/criptoKids.sol\":2185:2192  kids[i] */\n      dup2\n      sload\n      dup2\n      lt\n      tag_88\n      jumpi\n      tag_89\n      tag_53\n      jump\t// in\n    tag_89:\n    tag_88:\n      swap1\n      0x00\n      mstore\n      keccak256(0x00, 0x20)\n      swap1\n      0x06\n      mul\n      add\n        /* \"contracts/criptoKids.sol\":2185:2204  kids[i].releaseTime */\n      0x03\n      add\n      sload\n        /* \"contracts/criptoKids.sol\":2169:2184  block.timestamp */\n      timestamp\n        /* \"contracts/criptoKids.sol\":2169:2204  block.timestamp>kids[i].releaseTime */\n      gt\n        /* \"contracts/criptoKids.sol\":2161:2232  require(block.timestamp>kids[i].releaseTime, \"You cannot withdraw now\") */\n      tag_91\n      jumpi\n      mload(0x40)\n      0x08c379a000000000000000000000000000000000000000000000000000000000\n      dup2\n      mstore\n      0x04\n      add\n      tag_92\n      swap1\n      tag_93\n      jump\t// in\n    tag_92:\n      mload(0x40)\n      dup1\n      swap2\n      sub\n      swap1\n      revert\n    tag_91:\n        /* \"contracts/criptoKids.sol\":2258:2262  kids */\n      0x01\n        /* \"contracts/criptoKids.sol\":2263:2264  i */\n      dup2\n        /* \"contracts/criptoKids.sol\":2258:2265  kids[i] */\n      dup2\n      sload\n      dup2\n      lt\n      tag_94\n      jumpi\n      tag_95\n      tag_53\n      jump\t// in\n    tag_95:\n    tag_94:\n      swap1\n      0x00\n      mstore\n      keccak256(0x00, 0x20)\n      swap1\n      0x06\n      mul\n      add\n        /* \"contracts/criptoKids.sol\":2258:2277  kids[i].releaseTime */\n      0x03\n      add\n      sload\n        /* \"contracts/criptoKids.sol\":2242:2257  block.timestamp */\n      timestamp\n        /* \"contracts/criptoKids.sol\":2242:2277  block.timestamp>kids[i].releaseTime */\n      gt\n        /* \"contracts/criptoKids.sol\":2239:2382  if(block.timestamp>kids[i].releaseTime){\r... */\n      iszero\n      tag_97\n      jumpi\n        /* \"contracts/criptoKids.sol\":2311:2315  true */\n      0x01\n        /* \"contracts/criptoKids.sol\":2289:2293  kids */\n      dup1\n        /* \"contracts/criptoKids.sol\":2294:2295  i */\n      dup3\n        /* \"contracts/criptoKids.sol\":2289:2296  kids[i] */\n      dup2\n      sload\n      dup2\n      lt\n      tag_98\n      jumpi\n      tag_99\n      tag_53\n      jump\t// in\n    tag_99:\n    tag_98:\n      swap1\n      0x00\n      mstore\n      keccak256(0x00, 0x20)\n      swap1\n      0x06\n      mul\n      add\n        /* \"contracts/criptoKids.sol\":2289:2308  kids[i].canWithdraw */\n      0x05\n      add\n      0x00\n        /* \"contracts/criptoKids.sol\":2289:2315  kids[i].canWithdraw = true */\n      0x0100\n      exp\n      dup2\n      sload\n      dup2\n      0xff\n      mul\n      not\n      and\n      swap1\n      dup4\n      iszero\n      iszero\n      mul\n      or\n      swap1\n      sstore\n      pop\n        /* \"contracts/criptoKids.sol\":2333:2337  true */\n      0x01\n        /* \"contracts/criptoKids.sol\":2326:2337  return true */\n      swap2\n      pop\n      pop\n      jump(tag_86)\n        /* \"contracts/criptoKids.sol\":2239:2382  if(block.timestamp>kids[i].releaseTime){\r... */\n    tag_97:\n        /* \"contracts/criptoKids.sol\":2369:2374  false */\n      0x00\n        /* \"contracts/criptoKids.sol\":2362:2374  return false */\n      swap2\n      pop\n      pop\n        /* \"contracts/criptoKids.sol\":2043:2385  function availableToWithdraw(address walletAddress) public returns(bool){\r... */\n    tag_86:\n      swap2\n      swap1\n      pop\n      jump\t// out\n        /* \"contracts/criptoKids.sol\":1352:1458  function deposit (address walletAddress) payable public {\r... */\n    tag_38:\n        /* \"contracts/criptoKids.sol\":1419:1450  addToKidsBalance(walletAddress) */\n      tag_103\n        /* \"contracts/criptoKids.sol\":1436:1449  walletAddress */\n      dup2\n        /* \"contracts/criptoKids.sol\":1419:1435  addToKidsBalance */\n      tag_104\n        /* \"contracts/criptoKids.sol\":1419:1450  addToKidsBalance(walletAddress) */\n      jump\t// in\n    tag_103:\n        /* \"contracts/criptoKids.sol\":1352:1458  function deposit (address walletAddress) payable public {\r... */\n      pop\n      jump\t// out\n        /* \"contracts/criptoKids.sol\":1779:2004  function getIndex(address walletAddress) view private returns(uint){\r... */\n    tag_50:\n        /* \"contracts/criptoKids.sol\":1841:1845  uint */\n      0x00\n        /* \"contracts/criptoKids.sol\":1857:1863  uint i */\n      dup1\n        /* \"contracts/criptoKids.sol\":1866:1867  0 */\n      0x00\n        /* \"contracts/criptoKids.sol\":1857:1867  uint i = 0 */\n      swap1\n      pop\n        /* \"contracts/criptoKids.sol\":1853:1983  for(uint i = 0; i<kids.length; i++){\r... */\n    tag_106:\n        /* \"contracts/criptoKids.sol\":1871:1875  kids */\n      0x01\n        /* \"contracts/criptoKids.sol\":1871:1882  kids.length */\n      dup1\n      sload\n      swap1\n      pop\n        /* \"contracts/criptoKids.sol\":1869:1870  i */\n      dup2\n        /* \"contracts/criptoKids.sol\":1869:1882  i<kids.length */\n      lt\n        /* \"contracts/criptoKids.sol\":1853:1983  for(uint i = 0; i<kids.length; i++){\r... */\n      iszero\n      tag_107\n      jumpi\n        /* \"contracts/criptoKids.sol\":1927:1940  walletAddress */\n      dup3\n        /* \"contracts/criptoKids.sol\":1902:1940  kids[i].walletAddress == walletAddress */\n      0xffffffffffffffffffffffffffffffffffffffff\n      and\n        /* \"contracts/criptoKids.sol\":1902:1906  kids */\n      0x01\n        /* \"contracts/criptoKids.sol\":1907:1908  i */\n      dup3\n        /* \"contracts/criptoKids.sol\":1902:1909  kids[i] */\n      dup2\n      sload\n      dup2\n      lt\n      tag_109\n      jumpi\n      tag_110\n      tag_53\n      jump\t// in\n    tag_110:\n    tag_109:\n      swap1\n      0x00\n      mstore\n      keccak256(0x00, 0x20)\n      swap1\n      0x06\n      mul\n      add\n        /* \"contracts/criptoKids.sol\":1902:1923  kids[i].walletAddress */\n      0x00\n      add\n      0x00\n      swap1\n      sload\n      swap1\n      0x0100\n      exp\n      swap1\n      div\n      0xffffffffffffffffffffffffffffffffffffffff\n      and\n        /* \"contracts/criptoKids.sol\":1902:1940  kids[i].walletAddress == walletAddress */\n      0xffffffffffffffffffffffffffffffffffffffff\n      and\n      eq\n        /* \"contracts/criptoKids.sol\":1899:1976  if(kids[i].walletAddress == walletAddress){\r... */\n      iszero\n      tag_112\n      jumpi\n        /* \"contracts/criptoKids.sol\":1963:1964  i */\n      dup1\n        /* \"contracts/criptoKids.sol\":1956:1964  return i */\n      swap2\n      pop\n      pop\n      jump(tag_105)\n        /* \"contracts/criptoKids.sol\":1899:1976  if(kids[i].walletAddress == walletAddress){\r... */\n    tag_112:\n        /* \"contracts/criptoKids.sol\":1884:1887  i++ */\n      dup1\n      dup1\n      tag_113\n      swap1\n      tag_114\n      jump\t// in\n    tag_113:\n      swap2\n      pop\n      pop\n        /* \"contracts/criptoKids.sol\":1853:1983  for(uint i = 0; i<kids.length; i++){\r... */\n      jump(tag_106)\n    tag_107:\n      pop\n        /* \"contracts/criptoKids.sol\":1996:2000  9999 */\n      0x270f\n        /* \"contracts/criptoKids.sol\":1989:2000  return 9999 */\n      swap1\n      pop\n        /* \"contracts/criptoKids.sol\":1779:2004  function getIndex(address walletAddress) view private returns(uint){\r... */\n    tag_105:\n      swap2\n      swap1\n      pop\n      jump\t// out\n        /* \"contracts/criptoKids.sol\":1464:1775  function addToKidsBalance(address walletAddress) private onlyOwner {\r... */\n    tag_104:\n        /* \"contracts/criptoKids.sol\":581:586  owner */\n      0x00\n      dup1\n      sload\n      swap1\n      0x0100\n      exp\n      swap1\n      div\n      0xffffffffffffffffffffffffffffffffffffffff\n      and\n        /* \"contracts/criptoKids.sol\":567:586  msg.sender == owner */\n      0xffffffffffffffffffffffffffffffffffffffff\n      and\n        /* \"contracts/criptoKids.sol\":567:577  msg.sender */\n      caller\n        /* \"contracts/criptoKids.sol\":567:586  msg.sender == owner */\n      0xffffffffffffffffffffffffffffffffffffffff\n      and\n      eq\n        /* \"contracts/criptoKids.sol\":559:618  require(msg.sender == owner, \"Only the owner can add kids\") */\n      tag_116\n      jumpi\n      mload(0x40)\n      0x08c379a000000000000000000000000000000000000000000000000000000000\n      dup2\n      mstore\n      0x04\n      add\n      tag_117\n      swap1\n      tag_42\n      jump\t// in\n    tag_117:\n      mload(0x40)\n      dup1\n      swap2\n      sub\n      swap1\n      revert\n    tag_116:\n        /* \"contracts/criptoKids.sol\":1550:1556  uint i */\n      0x00\n        /* \"contracts/criptoKids.sol\":1546:1766  for(uint i = 0; i < kids.length; i++) {\r... */\n    tag_119:\n        /* \"contracts/criptoKids.sol\":1566:1570  kids */\n      0x01\n        /* \"contracts/criptoKids.sol\":1566:1577  kids.length */\n      dup1\n      sload\n      swap1\n      pop\n        /* \"contracts/criptoKids.sol\":1562:1563  i */\n      dup2\n        /* \"contracts/criptoKids.sol\":1562:1577  i < kids.length */\n      lt\n        /* \"contracts/criptoKids.sol\":1546:1766  for(uint i = 0; i < kids.length; i++) {\r... */\n      iszero\n      tag_120\n      jumpi\n        /* \"contracts/criptoKids.sol\":1631:1644  walletAddress */\n      dup2\n        /* \"contracts/criptoKids.sol\":1606:1644  kids[i].walletAddress == walletAddress */\n      0xffffffffffffffffffffffffffffffffffffffff\n      and\n        /* \"contracts/criptoKids.sol\":1606:1610  kids */\n      0x01\n        /* \"contracts/criptoKids.sol\":1611:1612  i */\n      dup3\n        /* \"contracts/criptoKids.sol\":1606:1613  kids[i] */\n      dup2\n      sload\n      dup2\n      lt\n      tag_122\n      jumpi\n      tag_123\n      tag_53\n      jump\t// in\n    tag_123:\n    tag_122:\n      swap1\n      0x00\n      mstore\n      keccak256(0x00, 0x20)\n      swap1\n      0x06\n      mul\n      add\n        /* \"contracts/criptoKids.sol\":1606:1627  kids[i].walletAddress */\n      0x00\n      add\n      0x00\n      swap1\n      sload\n      swap1\n      0x0100\n      exp\n      swap1\n      div\n      0xffffffffffffffffffffffffffffffffffffffff\n      and\n        /* \"contracts/criptoKids.sol\":1606:1644  kids[i].walletAddress == walletAddress */\n      0xffffffffffffffffffffffffffffffffffffffff\n      and\n      eq\n        /* \"contracts/criptoKids.sol\":1603:1755  if(kids[i].walletAddress == walletAddress) {\r... */\n      iszero\n      tag_125\n      jumpi\n        /* \"contracts/criptoKids.sol\":1707:1716  msg.value */\n      callvalue\n        /* \"contracts/criptoKids.sol\":1689:1693  kids */\n      0x01\n        /* \"contracts/criptoKids.sol\":1694:1695  i */\n      dup3\n        /* \"contracts/criptoKids.sol\":1689:1696  kids[i] */\n      dup2\n      sload\n      dup2\n      lt\n      tag_126\n      jumpi\n      tag_127\n      tag_53\n      jump\t// in\n    tag_127:\n    tag_126:\n      swap1\n      0x00\n      mstore\n      keccak256(0x00, 0x20)\n      swap1\n      0x06\n      mul\n      add\n        /* \"contracts/criptoKids.sol\":1689:1703  kids[i].amount */\n      0x04\n      add\n      0x00\n        /* \"contracts/criptoKids.sol\":1689:1716  kids[i].amount += msg.value */\n      dup3\n      dup3\n      sload\n      tag_129\n      swap2\n      swap1\n      tag_130\n      jump\t// in\n    tag_129:\n      swap3\n      pop\n      pop\n      dup2\n      swap1\n      sstore\n      pop\n        /* \"contracts/criptoKids.sol\":1603:1755  if(kids[i].walletAddress == walletAddress) {\r... */\n    tag_125:\n        /* \"contracts/criptoKids.sol\":1579:1582  i++ */\n      dup1\n      dup1\n      tag_131\n      swap1\n      tag_114\n      jump\t// in\n    tag_131:\n      swap2\n      pop\n      pop\n        /* \"contracts/criptoKids.sol\":1546:1766  for(uint i = 0; i < kids.length; i++) {\r... */\n      jump(tag_119)\n    tag_120:\n      pop\n        /* \"contracts/criptoKids.sol\":1464:1775  function addToKidsBalance(address walletAddress) private onlyOwner {\r... */\n      pop\n      jump\t// out\n    tag_46:\n      dup3\n      dup1\n      sload\n      tag_132\n      swap1\n      tag_76\n      jump\t// in\n    tag_132:\n      swap1\n      0x00\n      mstore\n      keccak256(0x00, 0x20)\n      swap1\n      0x1f\n      add\n      0x20\n      swap1\n      div\n      dup2\n      add\n      swap3\n      dup3\n      tag_134\n      jumpi\n      0x00\n      dup6\n      sstore\n      jump(tag_133)\n    tag_134:\n      dup3\n      0x1f\n      lt\n      tag_135\n      jumpi\n      dup1\n      mload\n      not(0xff)\n      and\n      dup4\n      dup1\n      add\n      or\n      dup6\n      sstore\n      jump(tag_133)\n    tag_135:\n      dup3\n      dup1\n      add\n      0x01\n      add\n      dup6\n      sstore\n      dup3\n      iszero\n      tag_133\n      jumpi\n      swap2\n      dup3\n      add\n    tag_136:\n      dup3\n      dup2\n      gt\n      iszero\n      tag_137\n      jumpi\n      dup3\n      mload\n      dup3\n      sstore\n      swap2\n      0x20\n      add\n      swap2\n      swap1\n      0x01\n      add\n      swap1\n      jump(tag_136)\n    tag_137:\n    tag_133:\n      pop\n      swap1\n      pop\n      tag_138\n      swap2\n      swap1\n      tag_139\n      jump\t// in\n    tag_138:\n      pop\n      swap1\n      jump\t// out\n    tag_139:\n    tag_140:\n      dup1\n      dup3\n      gt\n      iszero\n      tag_141\n      jumpi\n      0x00\n      dup2\n      0x00\n      swap1\n      sstore\n      pop\n      0x01\n      add\n      jump(tag_140)\n    tag_141:\n      pop\n      swap1\n      jump\t// out\n        /* \"#utility.yul\":7:419   */\n    tag_143:\n        /* \"#utility.yul\":85:90   */\n      0x00\n        /* \"#utility.yul\":110:176   */\n      tag_145\n        /* \"#utility.yul\":126:175   */\n      tag_146\n        /* \"#utility.yul\":168:174   */\n      dup5\n        /* \"#utility.yul\":126:175   */\n      tag_147\n      jump\t// in\n    tag_146:\n        /* \"#utility.yul\":110:176   */\n      tag_148\n      jump\t// in\n    tag_145:\n        /* \"#utility.yul\":101:176   */\n      swap1\n      pop\n        /* \"#utility.yul\":199:205   */\n      dup3\n        /* \"#utility.yul\":192:197   */\n      dup2\n        /* \"#utility.yul\":185:206   */\n      mstore\n        /* \"#utility.yul\":237:241   */\n      0x20\n        /* \"#utility.yul\":230:235   */\n      dup2\n        /* \"#utility.yul\":226:242   */\n      add\n        /* \"#utility.yul\":275:278   */\n      dup5\n        /* \"#utility.yul\":266:272   */\n      dup5\n        /* \"#utility.yul\":261:264   */\n      dup5\n        /* \"#utility.yul\":257:273   */\n      add\n        /* \"#utility.yul\":254:279   */\n      gt\n        /* \"#utility.yul\":251:363   */\n      iszero\n      tag_149\n      jumpi\n        /* \"#utility.yul\":282:361   */\n      tag_150\n      tag_151\n      jump\t// in\n    tag_150:\n        /* \"#utility.yul\":251:363   */\n    tag_149:\n        /* \"#utility.yul\":372:413   */\n      tag_152\n        /* \"#utility.yul\":406:412   */\n      dup5\n        /* \"#utility.yul\":401:404   */\n      dup3\n        /* \"#utility.yul\":396:399   */\n      dup6\n        /* \"#utility.yul\":372:413   */\n      tag_153\n      jump\t// in\n    tag_152:\n        /* \"#utility.yul\":91:419   */\n      pop\n        /* \"#utility.yul\":7:419   */\n      swap4\n      swap3\n      pop\n      pop\n      pop\n      jump\t// out\n        /* \"#utility.yul\":425:564   */\n    tag_154:\n        /* \"#utility.yul\":471:476   */\n      0x00\n        /* \"#utility.yul\":509:515   */\n      dup2\n        /* \"#utility.yul\":496:516   */\n      calldataload\n        /* \"#utility.yul\":487:516   */\n      swap1\n      pop\n        /* \"#utility.yul\":525:558   */\n      tag_156\n        /* \"#utility.yul\":552:557   */\n      dup2\n        /* \"#utility.yul\":525:558   */\n      tag_157\n      jump\t// in\n    tag_156:\n        /* \"#utility.yul\":425:564   */\n      swap3\n      swap2\n      pop\n      pop\n      jump\t// out\n        /* \"#utility.yul\":570:725   */\n    tag_158:\n        /* \"#utility.yul\":624:629   */\n      0x00\n        /* \"#utility.yul\":662:668   */\n      dup2\n        /* \"#utility.yul\":649:669   */\n      calldataload\n        /* \"#utility.yul\":640:669   */\n      swap1\n      pop\n        /* \"#utility.yul\":678:719   */\n      tag_160\n        /* \"#utility.yul\":713:718   */\n      dup2\n        /* \"#utility.yul\":678:719   */\n      tag_161\n      jump\t// in\n    tag_160:\n        /* \"#utility.yul\":570:725   */\n      swap3\n      swap2\n      pop\n      pop\n      jump\t// out\n        /* \"#utility.yul\":731:864   */\n    tag_162:\n        /* \"#utility.yul\":774:779   */\n      0x00\n        /* \"#utility.yul\":812:818   */\n      dup2\n        /* \"#utility.yul\":799:819   */\n      calldataload\n        /* \"#utility.yul\":790:819   */\n      swap1\n      pop\n        /* \"#utility.yul\":828:858   */\n      tag_164\n        /* \"#utility.yul\":852:857   */\n      dup2\n        /* \"#utility.yul\":828:858   */\n      tag_165\n      jump\t// in\n    tag_164:\n        /* \"#utility.yul\":731:864   */\n      swap3\n      swap2\n      pop\n      pop\n      jump\t// out\n        /* \"#utility.yul\":884:1224   */\n    tag_166:\n        /* \"#utility.yul\":940:945   */\n      0x00\n        /* \"#utility.yul\":989:992   */\n      dup3\n        /* \"#utility.yul\":982:986   */\n      0x1f\n        /* \"#utility.yul\":974:980   */\n      dup4\n        /* \"#utility.yul\":970:987   */\n      add\n        /* \"#utility.yul\":966:993   */\n      slt\n        /* \"#utility.yul\":956:1078   */\n      tag_168\n      jumpi\n        /* \"#utility.yul\":997:1076   */\n      tag_169\n      tag_170\n      jump\t// in\n    tag_169:\n        /* \"#utility.yul\":956:1078   */\n    tag_168:\n        /* \"#utility.yul\":1114:1120   */\n      dup2\n        /* \"#utility.yul\":1101:1121   */\n      calldataload\n        /* \"#utility.yul\":1139:1218   */\n      tag_171\n        /* \"#utility.yul\":1214:1217   */\n      dup5\n        /* \"#utility.yul\":1206:1212   */\n      dup3\n        /* \"#utility.yul\":1199:1203   */\n      0x20\n        /* \"#utility.yul\":1191:1197   */\n      dup7\n        /* \"#utility.yul\":1187:1204   */\n      add\n        /* \"#utility.yul\":1139:1218   */\n      tag_143\n      jump\t// in\n    tag_171:\n        /* \"#utility.yul\":1130:1218   */\n      swap2\n      pop\n        /* \"#utility.yul\":946:1224   */\n      pop\n        /* \"#utility.yul\":884:1224   */\n      swap3\n      swap2\n      pop\n      pop\n      jump\t// out\n        /* \"#utility.yul\":1230:1369   */\n    tag_172:\n        /* \"#utility.yul\":1276:1281   */\n      0x00\n        /* \"#utility.yul\":1314:1320   */\n      dup2\n        /* \"#utility.yul\":1301:1321   */\n      calldataload\n        /* \"#utility.yul\":1292:1321   */\n      swap1\n      pop\n        /* \"#utility.yul\":1330:1363   */\n      tag_174\n        /* \"#utility.yul\":1357:1362   */\n      dup2\n        /* \"#utility.yul\":1330:1363   */\n      tag_175\n      jump\t// in\n    tag_174:\n        /* \"#utility.yul\":1230:1369   */\n      swap3\n      swap2\n      pop\n      pop\n      jump\t// out\n        /* \"#utility.yul\":1375:1704   */\n    tag_32:\n        /* \"#utility.yul\":1434:1440   */\n      0x00\n        /* \"#utility.yul\":1483:1485   */\n      0x20\n        /* \"#utility.yul\":1471:1480   */\n      dup3\n        /* \"#utility.yul\":1462:1469   */\n      dup5\n        /* \"#utility.yul\":1458:1481   */\n      sub\n        /* \"#utility.yul\":1454:1486   */\n      slt\n        /* \"#utility.yul\":1451:1570   */\n      iszero\n      tag_177\n      jumpi\n        /* \"#utility.yul\":1489:1568   */\n      tag_178\n      tag_179\n      jump\t// in\n    tag_178:\n        /* \"#utility.yul\":1451:1570   */\n    tag_177:\n        /* \"#utility.yul\":1609:1610   */\n      0x00\n        /* \"#utility.yul\":1634:1687   */\n      tag_180\n        /* \"#utility.yul\":1679:1686   */\n      dup5\n        /* \"#utility.yul\":1670:1676   */\n      dup3\n        /* \"#utility.yul\":1659:1668   */\n      dup6\n        /* \"#utility.yul\":1655:1677   */\n      add\n        /* \"#utility.yul\":1634:1687   */\n      tag_154\n      jump\t// in\n    tag_180:\n        /* \"#utility.yul\":1624:1687   */\n      swap2\n      pop\n        /* \"#utility.yul\":1580:1697   */\n      pop\n        /* \"#utility.yul\":1375:1704   */\n      swap3\n      swap2\n      pop\n      pop\n      jump\t// out\n        /* \"#utility.yul\":1710:2055   */\n    tag_15:\n        /* \"#utility.yul\":1777:1783   */\n      0x00\n        /* \"#utility.yul\":1826:1828   */\n      0x20\n        /* \"#utility.yul\":1814:1823   */\n      dup3\n        /* \"#utility.yul\":1805:1812   */\n      dup5\n        /* \"#utility.yul\":1801:1824   */\n      sub\n        /* \"#utility.yul\":1797:1829   */\n      slt\n        /* \"#utility.yul\":1794:1913   */\n      iszero\n      tag_182\n      jumpi\n        /* \"#utility.yul\":1832:1911   */\n      tag_183\n      tag_179\n      jump\t// in\n    tag_183:\n        /* \"#utility.yul\":1794:1913   */\n    tag_182:\n        /* \"#utility.yul\":1952:1953   */\n      0x00\n        /* \"#utility.yul\":1977:2038   */\n      tag_184\n        /* \"#utility.yul\":2030:2037   */\n      dup5\n        /* \"#utility.yul\":2021:2027   */\n      dup3\n        /* \"#utility.yul\":2010:2019   */\n      dup6\n        /* \"#utility.yul\":2006:2028   */\n      add\n        /* \"#utility.yul\":1977:2038   */\n      tag_158\n      jump\t// in\n    tag_184:\n        /* \"#utility.yul\":1967:2038   */\n      swap2\n      pop\n        /* \"#utility.yul\":1923:2048   */\n      pop\n        /* \"#utility.yul\":1710:2055   */\n      swap3\n      swap2\n      pop\n      pop\n      jump\t// out\n        /* \"#utility.yul\":2061:3488   */\n    tag_11:\n        /* \"#utility.yul\":2190:2196   */\n      0x00\n        /* \"#utility.yul\":2198:2204   */\n      dup1\n        /* \"#utility.yul\":2206:2212   */\n      0x00\n        /* \"#utility.yul\":2214:2220   */\n      dup1\n        /* \"#utility.yul\":2222:2228   */\n      0x00\n        /* \"#utility.yul\":2230:2236   */\n      dup1\n        /* \"#utility.yul\":2279:2282   */\n      0xc0\n        /* \"#utility.yul\":2267:2276   */\n      dup8\n        /* \"#utility.yul\":2258:2265   */\n      dup10\n        /* \"#utility.yul\":2254:2277   */\n      sub\n        /* \"#utility.yul\":2250:2283   */\n      slt\n        /* \"#utility.yul\":2247:2367   */\n      iszero\n      tag_186\n      jumpi\n        /* \"#utility.yul\":2286:2365   */\n      tag_187\n      tag_179\n      jump\t// in\n    tag_187:\n        /* \"#utility.yul\":2247:2367   */\n    tag_186:\n        /* \"#utility.yul\":2406:2407   */\n      0x00\n        /* \"#utility.yul\":2431:2492   */\n      tag_188\n        /* \"#utility.yul\":2484:2491   */\n      dup10\n        /* \"#utility.yul\":2475:2481   */\n      dup3\n        /* \"#utility.yul\":2464:2473   */\n      dup11\n        /* \"#utility.yul\":2460:2482   */\n      add\n        /* \"#utility.yul\":2431:2492   */\n      tag_158\n      jump\t// in\n    tag_188:\n        /* \"#utility.yul\":2421:2492   */\n      swap7\n      pop\n        /* \"#utility.yul\":2377:2502   */\n      pop\n        /* \"#utility.yul\":2569:2571   */\n      0x20\n        /* \"#utility.yul\":2558:2567   */\n      dup8\n        /* \"#utility.yul\":2554:2572   */\n      add\n        /* \"#utility.yul\":2541:2573   */\n      calldataload\n        /* \"#utility.yul\":2600:2618   */\n      0xffffffffffffffff\n        /* \"#utility.yul\":2592:2598   */\n      dup2\n        /* \"#utility.yul\":2589:2619   */\n      gt\n        /* \"#utility.yul\":2586:2703   */\n      iszero\n      tag_189\n      jumpi\n        /* \"#utility.yul\":2622:2701   */\n      tag_190\n      tag_191\n      jump\t// in\n    tag_190:\n        /* \"#utility.yul\":2586:2703   */\n    tag_189:\n        /* \"#utility.yul\":2727:2790   */\n      tag_192\n        /* \"#utility.yul\":2782:2789   */\n      dup10\n        /* \"#utility.yul\":2773:2779   */\n      dup3\n        /* \"#utility.yul\":2762:2771   */\n      dup11\n        /* \"#utility.yul\":2758:2780   */\n      add\n        /* \"#utility.yul\":2727:2790   */\n      tag_166\n      jump\t// in\n    tag_192:\n        /* \"#utility.yul\":2717:2790   */\n      swap6\n      pop\n        /* \"#utility.yul\":2512:2800   */\n      pop\n        /* \"#utility.yul\":2867:2869   */\n      0x40\n        /* \"#utility.yul\":2856:2865   */\n      dup8\n        /* \"#utility.yul\":2852:2870   */\n      add\n        /* \"#utility.yul\":2839:2871   */\n      calldataload\n        /* \"#utility.yul\":2898:2916   */\n      0xffffffffffffffff\n        /* \"#utility.yul\":2890:2896   */\n      dup2\n        /* \"#utility.yul\":2887:2917   */\n      gt\n        /* \"#utility.yul\":2884:3001   */\n      iszero\n      tag_193\n      jumpi\n        /* \"#utility.yul\":2920:2999   */\n      tag_194\n      tag_191\n      jump\t// in\n    tag_194:\n        /* \"#utility.yul\":2884:3001   */\n    tag_193:\n        /* \"#utility.yul\":3025:3088   */\n      tag_195\n        /* \"#utility.yul\":3080:3087   */\n      dup10\n        /* \"#utility.yul\":3071:3077   */\n      dup3\n        /* \"#utility.yul\":3060:3069   */\n      dup11\n        /* \"#utility.yul\":3056:3078   */\n      add\n        /* \"#utility.yul\":3025:3088   */\n      tag_166\n      jump\t// in\n    tag_195:\n        /* \"#utility.yul\":3015:3088   */\n      swap5\n      pop\n        /* \"#utility.yul\":2810:3098   */\n      pop\n        /* \"#utility.yul\":3137:3139   */\n      0x60\n        /* \"#utility.yul\":3163:3216   */\n      tag_196\n        /* \"#utility.yul\":3208:3215   */\n      dup10\n        /* \"#utility.yul\":3199:3205   */\n      dup3\n        /* \"#utility.yul\":3188:3197   */\n      dup11\n        /* \"#utility.yul\":3184:3206   */\n      add\n        /* \"#utility.yul\":3163:3216   */\n      tag_172\n      jump\t// in\n    tag_196:\n        /* \"#utility.yul\":3153:3216   */\n      swap4\n      pop\n        /* \"#utility.yul\":3108:3226   */\n      pop\n        /* \"#utility.yul\":3265:3268   */\n      0x80\n        /* \"#utility.yul\":3292:3345   */\n      tag_197\n        /* \"#utility.yul\":3337:3344   */\n      dup10\n        /* \"#utility.yul\":3328:3334   */\n      dup3\n        /* \"#utility.yul\":3317:3326   */\n      dup11\n        /* \"#utility.yul\":3313:3335   */\n      add\n        /* \"#utility.yul\":3292:3345   */\n      tag_172\n      jump\t// in\n    tag_197:\n        /* \"#utility.yul\":3282:3345   */\n      swap3\n      pop\n        /* \"#utility.yul\":3236:3355   */\n      pop\n        /* \"#utility.yul\":3394:3397   */\n      0xa0\n        /* \"#utility.yul\":3421:3471   */\n      tag_198\n        /* \"#utility.yul\":3463:3470   */\n      dup10\n        /* \"#utility.yul\":3454:3460   */\n      dup3\n        /* \"#utility.yul\":3443:3452   */\n      dup11\n        /* \"#utility.yul\":3439:3461   */\n      add\n        /* \"#utility.yul\":3421:3471   */\n      tag_162\n      jump\t// in\n    tag_198:\n        /* \"#utility.yul\":3411:3471   */\n      swap2\n      pop\n        /* \"#utility.yul\":3365:3481   */\n      pop\n        /* \"#utility.yul\":2061:3488   */\n      swap3\n      swap6\n      pop\n      swap3\n      swap6\n      pop\n      swap3\n      swap6\n      jump\t// out\n        /* \"#utility.yul\":3494:3823   */\n    tag_25:\n        /* \"#utility.yul\":3553:3559   */\n      0x00\n        /* \"#utility.yul\":3602:3604   */\n      0x20\n        /* \"#utility.yul\":3590:3599   */\n      dup3\n        /* \"#utility.yul\":3581:3588   */\n      dup5\n        /* \"#utility.yul\":3577:3600   */\n      sub\n        /* \"#utility.yul\":3573:3605   */\n      slt\n        /* \"#utility.yul\":3570:3689   */\n      iszero\n      tag_200\n      jumpi\n        /* \"#utility.yul\":3608:3687   */\n      tag_201\n      tag_179\n      jump\t// in\n    tag_201:\n        /* \"#utility.yul\":3570:3689   */\n    tag_200:\n        /* \"#utility.yul\":3728:3729   */\n      0x00\n        /* \"#utility.yul\":3753:3806   */\n      tag_202\n        /* \"#utility.yul\":3798:3805   */\n      dup5\n        /* \"#utility.yul\":3789:3795   */\n      dup3\n        /* \"#utility.yul\":3778:3787   */\n      dup6\n        /* \"#utility.yul\":3774:3796   */\n      add\n        /* \"#utility.yul\":3753:3806   */\n      tag_172\n      jump\t// in\n    tag_202:\n        /* \"#utility.yul\":3743:3806   */\n      swap2\n      pop\n        /* \"#utility.yul\":3699:3816   */\n      pop\n        /* \"#utility.yul\":3494:3823   */\n      swap3\n      swap2\n      pop\n      pop\n      jump\t// out\n        /* \"#utility.yul\":3829:3971   */\n    tag_203:\n        /* \"#utility.yul\":3932:3964   */\n      tag_205\n        /* \"#utility.yul\":3958:3963   */\n      dup2\n        /* \"#utility.yul\":3932:3964   */\n      tag_206\n      jump\t// in\n    tag_205:\n        /* \"#utility.yul\":3927:3930   */\n      dup3\n        /* \"#utility.yul\":3920:3965   */\n      mstore\n        /* \"#utility.yul\":3829:3971   */\n      pop\n      pop\n      jump\t// out\n        /* \"#utility.yul\":3977:4086   */\n    tag_207:\n        /* \"#utility.yul\":4058:4079   */\n      tag_209\n        /* \"#utility.yul\":4073:4078   */\n      dup2\n        /* \"#utility.yul\":4058:4079   */\n      tag_210\n      jump\t// in\n    tag_209:\n        /* \"#utility.yul\":4053:4056   */\n      dup3\n        /* \"#utility.yul\":4046:4080   */\n      mstore\n        /* \"#utility.yul\":3977:4086   */\n      pop\n      pop\n      jump\t// out\n        /* \"#utility.yul\":4092:4456   */\n    tag_211:\n        /* \"#utility.yul\":4180:4183   */\n      0x00\n        /* \"#utility.yul\":4208:4247   */\n      tag_213\n        /* \"#utility.yul\":4241:4246   */\n      dup3\n        /* \"#utility.yul\":4208:4247   */\n      tag_214\n      jump\t// in\n    tag_213:\n        /* \"#utility.yul\":4263:4334   */\n      tag_215\n        /* \"#utility.yul\":4327:4333   */\n      dup2\n        /* \"#utility.yul\":4322:4325   */\n      dup6\n        /* \"#utility.yul\":4263:4334   */\n      tag_216\n      jump\t// in\n    tag_215:\n        /* \"#utility.yul\":4256:4334   */\n      swap4\n      pop\n        /* \"#utility.yul\":4343:4395   */\n      tag_217\n        /* \"#utility.yul\":4388:4394   */\n      dup2\n        /* \"#utility.yul\":4383:4386   */\n      dup6\n        /* \"#utility.yul\":4376:4380   */\n      0x20\n        /* \"#utility.yul\":4369:4374   */\n      dup7\n        /* \"#utility.yul\":4365:4381   */\n      add\n        /* \"#utility.yul\":4343:4395   */\n      tag_218\n      jump\t// in\n    tag_217:\n        /* \"#utility.yul\":4420:4449   */\n      tag_219\n        /* \"#utility.yul\":4442:4448   */\n      dup2\n        /* \"#utility.yul\":4420:4449   */\n      tag_220\n      jump\t// in\n    tag_219:\n        /* \"#utility.yul\":4415:4418   */\n      dup5\n        /* \"#utility.yul\":4411:4450   */\n      add\n        /* \"#utility.yul\":4404:4450   */\n      swap2\n      pop\n        /* \"#utility.yul\":4184:4456   */\n      pop\n        /* \"#utility.yul\":4092:4456   */\n      swap3\n      swap2\n      pop\n      pop\n      jump\t// out\n        /* \"#utility.yul\":4462:4828   */\n    tag_221:\n        /* \"#utility.yul\":4604:4607   */\n      0x00\n        /* \"#utility.yul\":4625:4692   */\n      tag_223\n        /* \"#utility.yul\":4689:4691   */\n      0x29\n        /* \"#utility.yul\":4684:4687   */\n      dup4\n        /* \"#utility.yul\":4625:4692   */\n      tag_216\n      jump\t// in\n    tag_223:\n        /* \"#utility.yul\":4618:4692   */\n      swap2\n      pop\n        /* \"#utility.yul\":4701:4794   */\n      tag_224\n        /* \"#utility.yul\":4790:4793   */\n      dup3\n        /* \"#utility.yul\":4701:4794   */\n      tag_225\n      jump\t// in\n    tag_224:\n        /* \"#utility.yul\":4819:4821   */\n      0x40\n        /* \"#utility.yul\":4814:4817   */\n      dup3\n        /* \"#utility.yul\":4810:4822   */\n      add\n        /* \"#utility.yul\":4803:4822   */\n      swap1\n      pop\n        /* \"#utility.yul\":4462:4828   */\n      swap2\n      swap1\n      pop\n      jump\t// out\n        /* \"#utility.yul\":4834:5200   */\n    tag_226:\n        /* \"#utility.yul\":4976:4979   */\n      0x00\n        /* \"#utility.yul\":4997:5064   */\n      tag_228\n        /* \"#utility.yul\":5061:5063   */\n      0x24\n        /* \"#utility.yul\":5056:5059   */\n      dup4\n        /* \"#utility.yul\":4997:5064   */\n      tag_216\n      jump\t// in\n    tag_228:\n        /* \"#utility.yul\":4990:5064   */\n      swap2\n      pop\n        /* \"#utility.yul\":5073:5166   */\n      tag_229\n        /* \"#utility.yul\":5162:5165   */\n      dup3\n        /* \"#utility.yul\":5073:5166   */\n      tag_230\n      jump\t// in\n    tag_229:\n        /* \"#utility.yul\":5191:5193   */\n      0x40\n        /* \"#utility.yul\":5186:5189   */\n      dup3\n        /* \"#utility.yul\":5182:5194   */\n      add\n        /* \"#utility.yul\":5175:5194   */\n      swap1\n      pop\n        /* \"#utility.yul\":4834:5200   */\n      swap2\n      swap1\n      pop\n      jump\t// out\n        /* \"#utility.yul\":5206:5572   */\n    tag_231:\n        /* \"#utility.yul\":5348:5351   */\n      0x00\n        /* \"#utility.yul\":5369:5436   */\n      tag_233\n        /* \"#utility.yul\":5433:5435   */\n      0x17\n        /* \"#utility.yul\":5428:5431   */\n      dup4\n        /* \"#utility.yul\":5369:5436   */\n      tag_216\n      jump\t// in\n    tag_233:\n        /* \"#utility.yul\":5362:5436   */\n      swap2\n      pop\n        /* \"#utility.yul\":5445:5538   */\n      tag_234\n        /* \"#utility.yul\":5534:5537   */\n      dup3\n        /* \"#utility.yul\":5445:5538   */\n      tag_235\n      jump\t// in\n    tag_234:\n        /* \"#utility.yul\":5563:5565   */\n      0x20\n        /* \"#utility.yul\":5558:5561   */\n      dup3\n        /* \"#utility.yul\":5554:5566   */\n      add\n        /* \"#utility.yul\":5547:5566   */\n      swap1\n      pop\n        /* \"#utility.yul\":5206:5572   */\n      swap2\n      swap1\n      pop\n      jump\t// out\n        /* \"#utility.yul\":5578:5944   */\n    tag_236:\n        /* \"#utility.yul\":5720:5723   */\n      0x00\n        /* \"#utility.yul\":5741:5808   */\n      tag_238\n        /* \"#utility.yul\":5805:5807   */\n      0x1b\n        /* \"#utility.yul\":5800:5803   */\n      dup4\n        /* \"#utility.yul\":5741:5808   */\n      tag_216\n      jump\t// in\n    tag_238:\n        /* \"#utility.yul\":5734:5808   */\n      swap2\n      pop\n        /* \"#utility.yul\":5817:5910   */\n      tag_239\n        /* \"#utility.yul\":5906:5909   */\n      dup3\n        /* \"#utility.yul\":5817:5910   */\n      tag_240\n      jump\t// in\n    tag_239:\n        /* \"#utility.yul\":5935:5937   */\n      0x20\n        /* \"#utility.yul\":5930:5933   */\n      dup3\n        /* \"#utility.yul\":5926:5938   */\n      add\n        /* \"#utility.yul\":5919:5938   */\n      swap1\n      pop\n        /* \"#utility.yul\":5578:5944   */\n      swap2\n      swap1\n      pop\n      jump\t// out\n        /* \"#utility.yul\":5950:6068   */\n    tag_241:\n        /* \"#utility.yul\":6037:6061   */\n      tag_243\n        /* \"#utility.yul\":6055:6060   */\n      dup2\n        /* \"#utility.yul\":6037:6061   */\n      tag_244\n      jump\t// in\n    tag_243:\n        /* \"#utility.yul\":6032:6035   */\n      dup3\n        /* \"#utility.yul\":6025:6062   */\n      mstore\n        /* \"#utility.yul\":5950:6068   */\n      pop\n      pop\n      jump\t// out\n        /* \"#utility.yul\":6074:7051   */\n    tag_28:\n        /* \"#utility.yul\":6357:6361   */\n      0x00\n        /* \"#utility.yul\":6395:6398   */\n      0xc0\n        /* \"#utility.yul\":6384:6393   */\n      dup3\n        /* \"#utility.yul\":6380:6399   */\n      add\n        /* \"#utility.yul\":6372:6399   */\n      swap1\n      pop\n        /* \"#utility.yul\":6409:6496   */\n      tag_246\n        /* \"#utility.yul\":6493:6494   */\n      0x00\n        /* \"#utility.yul\":6482:6491   */\n      dup4\n        /* \"#utility.yul\":6478:6495   */\n      add\n        /* \"#utility.yul\":6469:6475   */\n      dup10\n        /* \"#utility.yul\":6409:6496   */\n      tag_203\n      jump\t// in\n    tag_246:\n        /* \"#utility.yul\":6543:6552   */\n      dup2\n        /* \"#utility.yul\":6537:6541   */\n      dup2\n        /* \"#utility.yul\":6533:6553   */\n      sub\n        /* \"#utility.yul\":6528:6530   */\n      0x20\n        /* \"#utility.yul\":6517:6526   */\n      dup4\n        /* \"#utility.yul\":6513:6531   */\n      add\n        /* \"#utility.yul\":6506:6554   */\n      mstore\n        /* \"#utility.yul\":6571:6649   */\n      tag_247\n        /* \"#utility.yul\":6644:6648   */\n      dup2\n        /* \"#utility.yul\":6635:6641   */\n      dup9\n        /* \"#utility.yul\":6571:6649   */\n      tag_211\n      jump\t// in\n    tag_247:\n        /* \"#utility.yul\":6563:6649   */\n      swap1\n      pop\n        /* \"#utility.yul\":6696:6705   */\n      dup2\n        /* \"#utility.yul\":6690:6694   */\n      dup2\n        /* \"#utility.yul\":6686:6706   */\n      sub\n        /* \"#utility.yul\":6681:6683   */\n      0x40\n        /* \"#utility.yul\":6670:6679   */\n      dup4\n        /* \"#utility.yul\":6666:6684   */\n      add\n        /* \"#utility.yul\":6659:6707   */\n      mstore\n        /* \"#utility.yul\":6724:6802   */\n      tag_248\n        /* \"#utility.yul\":6797:6801   */\n      dup2\n        /* \"#utility.yul\":6788:6794   */\n      dup8\n        /* \"#utility.yul\":6724:6802   */\n      tag_211\n      jump\t// in\n    tag_248:\n        /* \"#utility.yul\":6716:6802   */\n      swap1\n      pop\n        /* \"#utility.yul\":6812:6884   */\n      tag_249\n        /* \"#utility.yul\":6880:6882   */\n      0x60\n        /* \"#utility.yul\":6869:6878   */\n      dup4\n        /* \"#utility.yul\":6865:6883   */\n      add\n        /* \"#utility.yul\":6856:6862   */\n      dup7\n        /* \"#utility.yul\":6812:6884   */\n      tag_241\n      jump\t// in\n    tag_249:\n        /* \"#utility.yul\":6894:6967   */\n      tag_250\n        /* \"#utility.yul\":6962:6965   */\n      0x80\n        /* \"#utility.yul\":6951:6960   */\n      dup4\n        /* \"#utility.yul\":6947:6966   */\n      add\n        /* \"#utility.yul\":6938:6944   */\n      dup6\n        /* \"#utility.yul\":6894:6967   */\n      tag_241\n      jump\t// in\n    tag_250:\n        /* \"#utility.yul\":6977:7044   */\n      tag_251\n        /* \"#utility.yul\":7039:7042   */\n      0xa0\n        /* \"#utility.yul\":7028:7037   */\n      dup4\n        /* \"#utility.yul\":7024:7043   */\n      add\n        /* \"#utility.yul\":7015:7021   */\n      dup5\n        /* \"#utility.yul\":6977:7044   */\n      tag_207\n      jump\t// in\n    tag_251:\n        /* \"#utility.yul\":6074:7051   */\n      swap8\n      swap7\n      pop\n      pop\n      pop\n      pop\n      pop\n      pop\n      pop\n      jump\t// out\n        /* \"#utility.yul\":7057:7267   */\n    tag_35:\n        /* \"#utility.yul\":7144:7148   */\n      0x00\n        /* \"#utility.yul\":7182:7184   */\n      0x20\n        /* \"#utility.yul\":7171:7180   */\n      dup3\n        /* \"#utility.yul\":7167:7185   */\n      add\n        /* \"#utility.yul\":7159:7185   */\n      swap1\n      pop\n        /* \"#utility.yul\":7195:7260   */\n      tag_253\n        /* \"#utility.yul\":7257:7258   */\n      0x00\n        /* \"#utility.yul\":7246:7255   */\n      dup4\n        /* \"#utility.yul\":7242:7259   */\n      add\n        /* \"#utility.yul\":7233:7239   */\n      dup5\n        /* \"#utility.yul\":7195:7260   */\n      tag_207\n      jump\t// in\n    tag_253:\n        /* \"#utility.yul\":7057:7267   */\n      swap3\n      swap2\n      pop\n      pop\n      jump\t// out\n        /* \"#utility.yul\":7273:7692   */\n    tag_63:\n        /* \"#utility.yul\":7439:7443   */\n      0x00\n        /* \"#utility.yul\":7477:7479   */\n      0x20\n        /* \"#utility.yul\":7466:7475   */\n      dup3\n        /* \"#utility.yul\":7462:7480   */\n      add\n        /* \"#utility.yul\":7454:7480   */\n      swap1\n      pop\n        /* \"#utility.yul\":7526:7535   */\n      dup2\n        /* \"#utility.yul\":7520:7524   */\n      dup2\n        /* \"#utility.yul\":7516:7536   */\n      sub\n        /* \"#utility.yul\":7512:7513   */\n      0x00\n        /* \"#utility.yul\":7501:7510   */\n      dup4\n        /* \"#utility.yul\":7497:7514   */\n      add\n        /* \"#utility.yul\":7490:7537   */\n      mstore\n        /* \"#utility.yul\":7554:7685   */\n      tag_255\n        /* \"#utility.yul\":7680:7684   */\n      dup2\n        /* \"#utility.yul\":7554:7685   */\n      tag_221\n      jump\t// in\n    tag_255:\n        /* \"#utility.yul\":7546:7685   */\n      swap1\n      pop\n        /* \"#utility.yul\":7273:7692   */\n      swap2\n      swap1\n      pop\n      jump\t// out\n        /* \"#utility.yul\":7698:8117   */\n    tag_57:\n        /* \"#utility.yul\":7864:7868   */\n      0x00\n        /* \"#utility.yul\":7902:7904   */\n      0x20\n        /* \"#utility.yul\":7891:7900   */\n      dup3\n        /* \"#utility.yul\":7887:7905   */\n      add\n        /* \"#utility.yul\":7879:7905   */\n      swap1\n      pop\n        /* \"#utility.yul\":7951:7960   */\n      dup2\n        /* \"#utility.yul\":7945:7949   */\n      dup2\n        /* \"#utility.yul\":7941:7961   */\n      sub\n        /* \"#utility.yul\":7937:7938   */\n      0x00\n        /* \"#utility.yul\":7926:7935   */\n      dup4\n        /* \"#utility.yul\":7922:7939   */\n      add\n        /* \"#utility.yul\":7915:7962   */\n      mstore\n        /* \"#utility.yul\":7979:8110   */\n      tag_257\n        /* \"#utility.yul\":8105:8109   */\n      dup2\n        /* \"#utility.yul\":7979:8110   */\n      tag_226\n      jump\t// in\n    tag_257:\n        /* \"#utility.yul\":7971:8110   */\n      swap1\n      pop\n        /* \"#utility.yul\":7698:8117   */\n      swap2\n      swap1\n      pop\n      jump\t// out\n        /* \"#utility.yul\":8123:8542   */\n    tag_93:\n        /* \"#utility.yul\":8289:8293   */\n      0x00\n        /* \"#utility.yul\":8327:8329   */\n      0x20\n        /* \"#utility.yul\":8316:8325   */\n      dup3\n        /* \"#utility.yul\":8312:8330   */\n      add\n        /* \"#utility.yul\":8304:8330   */\n      swap1\n      pop\n        /* \"#utility.yul\":8376:8385   */\n      dup2\n        /* \"#utility.yul\":8370:8374   */\n      dup2\n        /* \"#utility.yul\":8366:8386   */\n      sub\n        /* \"#utility.yul\":8362:8363   */\n      0x00\n        /* \"#utility.yul\":8351:8360   */\n      dup4\n        /* \"#utility.yul\":8347:8364   */\n      add\n        /* \"#utility.yul\":8340:8387   */\n      mstore\n        /* \"#utility.yul\":8404:8535   */\n      tag_259\n        /* \"#utility.yul\":8530:8534   */\n      dup2\n        /* \"#utility.yul\":8404:8535   */\n      tag_231\n      jump\t// in\n    tag_259:\n        /* \"#utility.yul\":8396:8535   */\n      swap1\n      pop\n        /* \"#utility.yul\":8123:8542   */\n      swap2\n      swap1\n      pop\n      jump\t// out\n        /* \"#utility.yul\":8548:8967   */\n    tag_42:\n        /* \"#utility.yul\":8714:8718   */\n      0x00\n        /* \"#utility.yul\":8752:8754   */\n      0x20\n        /* \"#utility.yul\":8741:8750   */\n      dup3\n        /* \"#utility.yul\":8737:8755   */\n      add\n        /* \"#utility.yul\":8729:8755   */\n      swap1\n      pop\n        /* \"#utility.yul\":8801:8810   */\n      dup2\n        /* \"#utility.yul\":8795:8799   */\n      dup2\n        /* \"#utility.yul\":8791:8811   */\n      sub\n        /* \"#utility.yul\":8787:8788   */\n      0x00\n        /* \"#utility.yul\":8776:8785   */\n      dup4\n        /* \"#utility.yul\":8772:8789   */\n      add\n        /* \"#utility.yul\":8765:8812   */\n      mstore\n        /* \"#utility.yul\":8829:8960   */\n      tag_261\n        /* \"#utility.yul\":8955:8959   */\n      dup2\n        /* \"#utility.yul\":8829:8960   */\n      tag_236\n      jump\t// in\n    tag_261:\n        /* \"#utility.yul\":8821:8960   */\n      swap1\n      pop\n        /* \"#utility.yul\":8548:8967   */\n      swap2\n      swap1\n      pop\n      jump\t// out\n        /* \"#utility.yul\":8973:9195   */\n    tag_21:\n        /* \"#utility.yul\":9066:9070   */\n      0x00\n        /* \"#utility.yul\":9104:9106   */\n      0x20\n        /* \"#utility.yul\":9093:9102   */\n      dup3\n        /* \"#utility.yul\":9089:9107   */\n      add\n        /* \"#utility.yul\":9081:9107   */\n      swap1\n      pop\n        /* \"#utility.yul\":9117:9188   */\n      tag_263\n        /* \"#utility.yul\":9185:9186   */\n      0x00\n        /* \"#utility.yul\":9174:9183   */\n      dup4\n        /* \"#utility.yul\":9170:9187   */\n      add\n        /* \"#utility.yul\":9161:9167   */\n      dup5\n        /* \"#utility.yul\":9117:9188   */\n      tag_241\n      jump\t// in\n    tag_263:\n        /* \"#utility.yul\":8973:9195   */\n      swap3\n      swap2\n      pop\n      pop\n      jump\t// out\n        /* \"#utility.yul\":9201:9330   */\n    tag_148:\n        /* \"#utility.yul\":9235:9241   */\n      0x00\n        /* \"#utility.yul\":9262:9282   */\n      tag_265\n      tag_266\n      jump\t// in\n    tag_265:\n        /* \"#utility.yul\":9252:9282   */\n      swap1\n      pop\n        /* \"#utility.yul\":9291:9324   */\n      tag_267\n        /* \"#utility.yul\":9319:9323   */\n      dup3\n        /* \"#utility.yul\":9311:9317   */\n      dup3\n        /* \"#utility.yul\":9291:9324   */\n      tag_268\n      jump\t// in\n    tag_267:\n        /* \"#utility.yul\":9201:9330   */\n      swap2\n      swap1\n      pop\n      jump\t// out\n        /* \"#utility.yul\":9336:9411   */\n    tag_266:\n        /* \"#utility.yul\":9369:9375   */\n      0x00\n        /* \"#utility.yul\":9402:9404   */\n      0x40\n        /* \"#utility.yul\":9396:9405   */\n      mload\n        /* \"#utility.yul\":9386:9405   */\n      swap1\n      pop\n        /* \"#utility.yul\":9336:9411   */\n      swap1\n      jump\t// out\n        /* \"#utility.yul\":9417:9725   */\n    tag_147:\n        /* \"#utility.yul\":9479:9483   */\n      0x00\n        /* \"#utility.yul\":9569:9587   */\n      0xffffffffffffffff\n        /* \"#utility.yul\":9561:9567   */\n      dup3\n        /* \"#utility.yul\":9558:9588   */\n      gt\n        /* \"#utility.yul\":9555:9611   */\n      iszero\n      tag_271\n      jumpi\n        /* \"#utility.yul\":9591:9609   */\n      tag_272\n      tag_273\n      jump\t// in\n    tag_272:\n        /* \"#utility.yul\":9555:9611   */\n    tag_271:\n        /* \"#utility.yul\":9629:9658   */\n      tag_274\n        /* \"#utility.yul\":9651:9657   */\n      dup3\n        /* \"#utility.yul\":9629:9658   */\n      tag_220\n      jump\t// in\n    tag_274:\n        /* \"#utility.yul\":9621:9658   */\n      swap1\n      pop\n        /* \"#utility.yul\":9713:9717   */\n      0x20\n        /* \"#utility.yul\":9707:9711   */\n      dup2\n        /* \"#utility.yul\":9703:9718   */\n      add\n        /* \"#utility.yul\":9695:9718   */\n      swap1\n      pop\n        /* \"#utility.yul\":9417:9725   */\n      swap2\n      swap1\n      pop\n      jump\t// out\n        /* \"#utility.yul\":9731:9830   */\n    tag_214:\n        /* \"#utility.yul\":9783:9789   */\n      0x00\n        /* \"#utility.yul\":9817:9822   */\n      dup2\n        /* \"#utility.yul\":9811:9823   */\n      mload\n        /* \"#utility.yul\":9801:9823   */\n      swap1\n      pop\n        /* \"#utility.yul\":9731:9830   */\n      swap2\n      swap1\n      pop\n      jump\t// out\n        /* \"#utility.yul\":9836:10005   */\n    tag_216:\n        /* \"#utility.yul\":9920:9931   */\n      0x00\n        /* \"#utility.yul\":9954:9960   */\n      dup3\n        /* \"#utility.yul\":9949:9952   */\n      dup3\n        /* \"#utility.yul\":9942:9961   */\n      mstore\n        /* \"#utility.yul\":9994:9998   */\n      0x20\n        /* \"#utility.yul\":9989:9992   */\n      dup3\n        /* \"#utility.yul\":9985:9999   */\n      add\n        /* \"#utility.yul\":9970:9999   */\n      swap1\n      pop\n        /* \"#utility.yul\":9836:10005   */\n      swap3\n      swap2\n      pop\n      pop\n      jump\t// out\n        /* \"#utility.yul\":10011:10316   */\n    tag_130:\n        /* \"#utility.yul\":10051:10054   */\n      0x00\n        /* \"#utility.yul\":10070:10090   */\n      tag_278\n        /* \"#utility.yul\":10088:10089   */\n      dup3\n        /* \"#utility.yul\":10070:10090   */\n      tag_244\n      jump\t// in\n    tag_278:\n        /* \"#utility.yul\":10065:10090   */\n      swap2\n      pop\n        /* \"#utility.yul\":10104:10124   */\n      tag_279\n        /* \"#utility.yul\":10122:10123   */\n      dup4\n        /* \"#utility.yul\":10104:10124   */\n      tag_244\n      jump\t// in\n    tag_279:\n        /* \"#utility.yul\":10099:10124   */\n      swap3\n      pop\n        /* \"#utility.yul\":10258:10259   */\n      dup3\n        /* \"#utility.yul\":10190:10256   */\n      0xffffffffffffffffffffffffffffffffffffffffffffffffffffffffffffffff\n        /* \"#utility.yul\":10186:10260   */\n      sub\n        /* \"#utility.yul\":10183:10184   */\n      dup3\n        /* \"#utility.yul\":10180:10261   */\n      gt\n        /* \"#utility.yul\":10177:10284   */\n      iszero\n      tag_280\n      jumpi\n        /* \"#utility.yul\":10264:10282   */\n      tag_281\n      tag_282\n      jump\t// in\n    tag_281:\n        /* \"#utility.yul\":10177:10284   */\n    tag_280:\n        /* \"#utility.yul\":10308:10309   */\n      dup3\n        /* \"#utility.yul\":10305:10306   */\n      dup3\n        /* \"#utility.yul\":10301:10310   */\n      add\n        /* \"#utility.yul\":10294:10310   */\n      swap1\n      pop\n        /* \"#utility.yul\":10011:10316   */\n      swap3\n      swap2\n      pop\n      pop\n      jump\t// out\n        /* \"#utility.yul\":10322:10418   */\n    tag_283:\n        /* \"#utility.yul\":10359:10366   */\n      0x00\n        /* \"#utility.yul\":10388:10412   */\n      tag_285\n        /* \"#utility.yul\":10406:10411   */\n      dup3\n        /* \"#utility.yul\":10388:10412   */\n      tag_286\n      jump\t// in\n    tag_285:\n        /* \"#utility.yul\":10377:10412   */\n      swap1\n      pop\n        /* \"#utility.yul\":10322:10418   */\n      swap2\n      swap1\n      pop\n      jump\t// out\n        /* \"#utility.yul\":10424:10528   */\n    tag_206:\n        /* \"#utility.yul\":10469:10476   */\n      0x00\n        /* \"#utility.yul\":10498:10522   */\n      tag_288\n        /* \"#utility.yul\":10516:10521   */\n      dup3\n        /* \"#utility.yul\":10498:10522   */\n      tag_286\n      jump\t// in\n    tag_288:\n        /* \"#utility.yul\":10487:10522   */\n      swap1\n      pop\n        /* \"#utility.yul\":10424:10528   */\n      swap2\n      swap1\n      pop\n      jump\t// out\n        /* \"#utility.yul\":10534:10624   */\n    tag_210:\n        /* \"#utility.yul\":10568:10575   */\n      0x00\n        /* \"#utility.yul\":10611:10616   */\n      dup2\n        /* \"#utility.yul\":10604:10617   */\n      iszero\n        /* \"#utility.yul\":10597:10618   */\n      iszero\n        /* \"#utility.yul\":10586:10618   */\n      swap1\n      pop\n        /* \"#utility.yul\":10534:10624   */\n      swap2\n      swap1\n      pop\n      jump\t// out\n        /* \"#utility.yul\":10630:10756   */\n    tag_286:\n        /* \"#utility.yul\":10667:10674   */\n      0x00\n        /* \"#utility.yul\":10707:10749   */\n      0xffffffffffffffffffffffffffffffffffffffff\n        /* \"#utility.yul\":10700:10705   */\n      dup3\n        /* \"#utility.yul\":10696:10750   */\n      and\n        /* \"#utility.yul\":10685:10750   */\n      swap1\n      pop\n        /* \"#utility.yul\":10630:10756   */\n      swap2\n      swap1\n      pop\n      jump\t// out\n        /* \"#utility.yul\":10762:10839   */\n    tag_244:\n        /* \"#utility.yul\":10799:10806   */\n      0x00\n        /* \"#utility.yul\":10828:10833   */\n      dup2\n        /* \"#utility.yul\":10817:10833   */\n      swap1\n      pop\n        /* \"#utility.yul\":10762:10839   */\n      swap2\n      swap1\n      pop\n      jump\t// out\n        /* \"#utility.yul\":10845:10999   */\n    tag_153:\n        /* \"#utility.yul\":10929:10935   */\n      dup3\n        /* \"#utility.yul\":10924:10927   */\n      dup2\n        /* \"#utility.yul\":10919:10922   */\n      dup4\n        /* \"#utility.yul\":10906:10936   */\n      calldatacopy\n        /* \"#utility.yul\":10991:10992   */\n      0x00\n        /* \"#utility.yul\":10982:10988   */\n      dup4\n        /* \"#utility.yul\":10977:10980   */\n      dup4\n        /* \"#utility.yul\":10973:10989   */\n      add\n        /* \"#utility.yul\":10966:10993   */\n      mstore\n        /* \"#utility.yul\":10845:10999   */\n      pop\n      pop\n      pop\n      jump\t// out\n        /* \"#utility.yul\":11005:11312   */\n    tag_218:\n        /* \"#utility.yul\":11073:11074   */\n      0x00\n        /* \"#utility.yul\":11083:11196   */\n    tag_294:\n        /* \"#utility.yul\":11097:11103   */\n      dup4\n        /* \"#utility.yul\":11094:11095   */\n      dup2\n        /* \"#utility.yul\":11091:11104   */\n      lt\n        /* \"#utility.yul\":11083:11196   */\n      iszero\n      tag_296\n      jumpi\n        /* \"#utility.yul\":11182:11183   */\n      dup1\n        /* \"#utility.yul\":11177:11180   */\n      dup3\n        /* \"#utility.yul\":11173:11184   */\n      add\n        /* \"#utility.yul\":11167:11185   */\n      mload\n        /* \"#utility.yul\":11163:11164   */\n      dup2\n        /* \"#utility.yul\":11158:11161   */\n      dup5\n        /* \"#utility.yul\":11154:11165   */\n      add\n        /* \"#utility.yul\":11147:11186   */\n      mstore\n        /* \"#utility.yul\":11119:11121   */\n      0x20\n        /* \"#utility.yul\":11116:11117   */\n      dup2\n        /* \"#utility.yul\":11112:11122   */\n      add\n        /* \"#utility.yul\":11107:11122   */\n      swap1\n      pop\n        /* \"#utility.yul\":11083:11196   */\n      jump(tag_294)\n    tag_296:\n        /* \"#utility.yul\":11214:11220   */\n      dup4\n        /* \"#utility.yul\":11211:11212   */\n      dup2\n        /* \"#utility.yul\":11208:11221   */\n      gt\n        /* \"#utility.yul\":11205:11306   */\n      iszero\n      tag_297\n      jumpi\n        /* \"#utility.yul\":11294:11295   */\n      0x00\n        /* \"#utility.yul\":11285:11291   */\n      dup5\n        /* \"#utility.yul\":11280:11283   */\n      dup5\n        /* \"#utility.yul\":11276:11292   */\n      add\n        /* \"#utility.yul\":11269:11296   */\n      mstore\n        /* \"#utility.yul\":11205:11306   */\n    tag_297:\n        /* \"#utility.yul\":11054:11312   */\n      pop\n        /* \"#utility.yul\":11005:11312   */\n      pop\n      pop\n      pop\n      jump\t// out\n        /* \"#utility.yul\":11318:11638   */\n    tag_76:\n        /* \"#utility.yul\":11362:11368   */\n      0x00\n        /* \"#utility.yul\":11399:11400   */\n      0x02\n        /* \"#utility.yul\":11393:11397   */\n      dup3\n        /* \"#utility.yul\":11389:11401   */\n      div\n        /* \"#utility.yul\":11379:11401   */\n      swap1\n      pop\n        /* \"#utility.yul\":11446:11447   */\n      0x01\n        /* \"#utility.yul\":11440:11444   */\n      dup3\n        /* \"#utility.yul\":11436:11448   */\n      and\n        /* \"#utility.yul\":11467:11485   */\n      dup1\n        /* \"#utility.yul\":11457:11538   */\n      tag_299\n      jumpi\n        /* \"#utility.yul\":11523:11527   */\n      0x7f\n        /* \"#utility.yul\":11515:11521   */\n      dup3\n        /* \"#utility.yul\":11511:11528   */\n      and\n        /* \"#utility.yul\":11501:11528   */\n      swap2\n      pop\n        /* \"#utility.yul\":11457:11538   */\n    tag_299:\n        /* \"#utility.yul\":11585:11587   */\n      0x20\n        /* \"#utility.yul\":11577:11583   */\n      dup3\n        /* \"#utility.yul\":11574:11588   */\n      lt\n        /* \"#utility.yul\":11554:11572   */\n      dup2\n        /* \"#utility.yul\":11551:11589   */\n      eq\n        /* \"#utility.yul\":11548:11632   */\n      iszero\n      tag_300\n      jumpi\n        /* \"#utility.yul\":11604:11622   */\n      tag_301\n      tag_302\n      jump\t// in\n    tag_301:\n        /* \"#utility.yul\":11548:11632   */\n    tag_300:\n        /* \"#utility.yul\":11369:11638   */\n      pop\n        /* \"#utility.yul\":11318:11638   */\n      swap2\n      swap1\n      pop\n      jump\t// out\n        /* \"#utility.yul\":11644:11925   */\n    tag_268:\n        /* \"#utility.yul\":11727:11754   */\n      tag_304\n        /* \"#utility.yul\":11749:11753   */\n      dup3\n        /* \"#utility.yul\":11727:11754   */\n      tag_220\n      jump\t// in\n    tag_304:\n        /* \"#utility.yul\":11719:11725   */\n      dup2\n        /* \"#utility.yul\":11715:11755   */\n      add\n        /* \"#utility.yul\":11857:11863   */\n      dup2\n        /* \"#utility.yul\":11845:11855   */\n      dup2\n        /* \"#utility.yul\":11842:11864   */\n      lt\n        /* \"#utility.yul\":11821:11839   */\n      0xffffffffffffffff\n        /* \"#utility.yul\":11809:11819   */\n      dup3\n        /* \"#utility.yul\":11806:11840   */\n      gt\n        /* \"#utility.yul\":11803:11865   */\n      or\n        /* \"#utility.yul\":11800:11888   */\n      iszero\n      tag_305\n      jumpi\n        /* \"#utility.yul\":11868:11886   */\n      tag_306\n      tag_273\n      jump\t// in\n    tag_306:\n        /* \"#utility.yul\":11800:11888   */\n    tag_305:\n        /* \"#utility.yul\":11908:11918   */\n      dup1\n        /* \"#utility.yul\":11904:11906   */\n      0x40\n        /* \"#utility.yul\":11897:11919   */\n      mstore\n        /* \"#utility.yul\":11687:11925   */\n      pop\n        /* \"#utility.yul\":11644:11925   */\n      pop\n      pop\n      jump\t// out\n        /* \"#utility.yul\":11931:12164   */\n    tag_114:\n        /* \"#utility.yul\":11970:11973   */\n      0x00\n        /* \"#utility.yul\":11993:12017   */\n      tag_308\n        /* \"#utility.yul\":12011:12016   */\n      dup3\n        /* \"#utility.yul\":11993:12017   */\n      tag_244\n      jump\t// in\n    tag_308:\n        /* \"#utility.yul\":11984:12017   */\n      swap2\n      pop\n        /* \"#utility.yul\":12039:12105   */\n      0xffffffffffffffffffffffffffffffffffffffffffffffffffffffffffffffff\n        /* \"#utility.yul\":12032:12037   */\n      dup3\n        /* \"#utility.yul\":12029:12106   */\n      eq\n        /* \"#utility.yul\":12026:12129   */\n      iszero\n      tag_309\n      jumpi\n        /* \"#utility.yul\":12109:12127   */\n      tag_310\n      tag_282\n      jump\t// in\n    tag_310:\n        /* \"#utility.yul\":12026:12129   */\n    tag_309:\n        /* \"#utility.yul\":12156:12157   */\n      0x01\n        /* \"#utility.yul\":12149:12154   */\n      dup3\n        /* \"#utility.yul\":12145:12158   */\n      add\n        /* \"#utility.yul\":12138:12158   */\n      swap1\n      pop\n        /* \"#utility.yul\":11931:12164   */\n      swap2\n      swap1\n      pop\n      jump\t// out\n        /* \"#utility.yul\":12170:12350   */\n    tag_282:\n        /* \"#utility.yul\":12218:12295   */\n      0x4e487b7100000000000000000000000000000000000000000000000000000000\n        /* \"#utility.yul\":12215:12216   */\n      0x00\n        /* \"#utility.yul\":12208:12296   */\n      mstore\n        /* \"#utility.yul\":12315:12319   */\n      0x11\n        /* \"#utility.yul\":12312:12313   */\n      0x04\n        /* \"#utility.yul\":12305:12320   */\n      mstore\n        /* \"#utility.yul\":12339:12343   */\n      0x24\n        /* \"#utility.yul\":12336:12337   */\n      0x00\n        /* \"#utility.yul\":12329:12344   */\n      revert\n        /* \"#utility.yul\":12356:12536   */\n    tag_302:\n        /* \"#utility.yul\":12404:12481   */\n      0x4e487b7100000000000000000000000000000000000000000000000000000000\n        /* \"#utility.yul\":12401:12402   */\n      0x00\n        /* \"#utility.yul\":12394:12482   */\n      mstore\n        /* \"#utility.yul\":12501:12505   */\n      0x22\n        /* \"#utility.yul\":12498:12499   */\n      0x04\n        /* \"#utility.yul\":12491:12506   */\n      mstore\n        /* \"#utility.yul\":12525:12529   */\n      0x24\n        /* \"#utility.yul\":12522:12523   */\n      0x00\n        /* \"#utility.yul\":12515:12530   */\n      revert\n        /* \"#utility.yul\":12542:12722   */\n    tag_53:\n        /* \"#utility.yul\":12590:12667   */\n      0x4e487b7100000000000000000000000000000000000000000000000000000000\n        /* \"#utility.yul\":12587:12588   */\n      0x00\n        /* \"#utility.yul\":12580:12668   */\n      mstore\n        /* \"#utility.yul\":12687:12691   */\n      0x32\n        /* \"#utility.yul\":12684:12685   */\n      0x04\n        /* \"#utility.yul\":12677:12692   */\n      mstore\n        /* \"#utility.yul\":12711:12715   */\n      0x24\n        /* \"#utility.yul\":12708:12709   */\n      0x00\n        /* \"#utility.yul\":12701:12716   */\n      revert\n        /* \"#utility.yul\":12728:12908   */\n    tag_273:\n        /* \"#utility.yul\":12776:12853   */\n      0x4e487b7100000000000000000000000000000000000000000000000000000000\n        /* \"#utility.yul\":12773:12774   */\n      0x00\n        /* \"#utility.yul\":12766:12854   */\n      mstore\n        /* \"#utility.yul\":12873:12877   */\n      0x41\n        /* \"#utility.yul\":12870:12871   */\n      0x04\n        /* \"#utility.yul\":12863:12878   */\n      mstore\n        /* \"#utility.yul\":12897:12901   */\n      0x24\n        /* \"#utility.yul\":12894:12895   */\n      0x00\n        /* \"#utility.yul\":12887:12902   */\n      revert\n        /* \"#utility.yul\":12914:13031   */\n    tag_170:\n        /* \"#utility.yul\":13023:13024   */\n      0x00\n        /* \"#utility.yul\":13020:13021   */\n      dup1\n        /* \"#utility.yul\":13013:13025   */\n      revert\n        /* \"#utility.yul\":13037:13154   */\n    tag_151:\n        /* \"#utility.yul\":13146:13147   */\n      0x00\n        /* \"#utility.yul\":13143:13144   */\n      dup1\n        /* \"#utility.yul\":13136:13148   */\n      revert\n        /* \"#utility.yul\":13160:13277   */\n    tag_191:\n        /* \"#utility.yul\":13269:13270   */\n      0x00\n        /* \"#utility.yul\":13266:13267   */\n      dup1\n        /* \"#utility.yul\":13259:13271   */\n      revert\n        /* \"#utility.yul\":13283:13400   */\n    tag_179:\n        /* \"#utility.yul\":13392:13393   */\n      0x00\n        /* \"#utility.yul\":13389:13390   */\n      dup1\n        /* \"#utility.yul\":13382:13394   */\n      revert\n        /* \"#utility.yul\":13406:13508   */\n    tag_220:\n        /* \"#utility.yul\":13447:13453   */\n      0x00\n        /* \"#utility.yul\":13498:13500   */\n      0x1f\n        /* \"#utility.yul\":13494:13501   */\n      not\n        /* \"#utility.yul\":13489:13491   */\n      0x1f\n        /* \"#utility.yul\":13482:13487   */\n      dup4\n        /* \"#utility.yul\":13478:13492   */\n      add\n        /* \"#utility.yul\":13474:13502   */\n      and\n        /* \"#utility.yul\":13464:13502   */\n      swap1\n      pop\n        /* \"#utility.yul\":13406:13508   */\n      swap2\n      swap1\n      pop\n      jump\t// out\n        /* \"#utility.yul\":13514:13742   */\n    tag_225:\n        /* \"#utility.yul\":13654:13688   */\n      0x596f7520617265206e6f742061626c6520746f20776974686472617720617420\n        /* \"#utility.yul\":13650:13651   */\n      0x00\n        /* \"#utility.yul\":13642:13648   */\n      dup3\n        /* \"#utility.yul\":13638:13652   */\n      add\n        /* \"#utility.yul\":13631:13689   */\n      mstore\n        /* \"#utility.yul\":13723:13734   */\n      0x746869732074696d650000000000000000000000000000000000000000000000\n        /* \"#utility.yul\":13718:13720   */\n      0x20\n        /* \"#utility.yul\":13710:13716   */\n      dup3\n        /* \"#utility.yul\":13706:13721   */\n      add\n        /* \"#utility.yul\":13699:13735   */\n      mstore\n        /* \"#utility.yul\":13514:13742   */\n      pop\n      jump\t// out\n        /* \"#utility.yul\":13748:13971   */\n    tag_230:\n        /* \"#utility.yul\":13888:13922   */\n      0x596f752063616e2774207769746872617720736f6d656f6e6520656c7365206d\n        /* \"#utility.yul\":13884:13885   */\n      0x00\n        /* \"#utility.yul\":13876:13882   */\n      dup3\n        /* \"#utility.yul\":13872:13886   */\n      add\n        /* \"#utility.yul\":13865:13923   */\n      mstore\n        /* \"#utility.yul\":13957:13963   */\n      0x6f6e657900000000000000000000000000000000000000000000000000000000\n        /* \"#utility.yul\":13952:13954   */\n      0x20\n        /* \"#utility.yul\":13944:13950   */\n      dup3\n        /* \"#utility.yul\":13940:13955   */\n      add\n        /* \"#utility.yul\":13933:13964   */\n      mstore\n        /* \"#utility.yul\":13748:13971   */\n      pop\n      jump\t// out\n        /* \"#utility.yul\":13977:14150   */\n    tag_235:\n        /* \"#utility.yul\":14117:14142   */\n      0x596f752063616e6e6f74207769746864726177206e6f77000000000000000000\n        /* \"#utility.yul\":14113:14114   */\n      0x00\n        /* \"#utility.yul\":14105:14111   */\n      dup3\n        /* \"#utility.yul\":14101:14115   */\n      add\n        /* \"#utility.yul\":14094:14143   */\n      mstore\n        /* \"#utility.yul\":13977:14150   */\n      pop\n      jump\t// out\n        /* \"#utility.yul\":14156:14333   */\n    tag_240:\n        /* \"#utility.yul\":14296:14325   */\n      0x4f6e6c7920746865206f776e65722063616e20616464206b6964730000000000\n        /* \"#utility.yul\":14292:14293   */\n      0x00\n        /* \"#utility.yul\":14284:14290   */\n      dup3\n        /* \"#utility.yul\":14280:14294   */\n      add\n        /* \"#utility.yul\":14273:14326   */\n      mstore\n        /* \"#utility.yul\":14156:14333   */\n      pop\n      jump\t// out\n        /* \"#utility.yul\":14339:14461   */\n    tag_157:\n        /* \"#utility.yul\":14412:14436   */\n      tag_325\n        /* \"#utility.yul\":14430:14435   */\n      dup2\n        /* \"#utility.yul\":14412:14436   */\n      tag_283\n      jump\t// in\n    tag_325:\n        /* \"#utility.yul\":14405:14410   */\n      dup2\n        /* \"#utility.yul\":14402:14437   */\n      eq\n        /* \"#utility.yul\":14392:14455   */\n      tag_326\n      jumpi\n        /* \"#utility.yul\":14451:14452   */\n      0x00\n        /* \"#utility.yul\":14448:14449   */\n      dup1\n        /* \"#utility.yul\":14441:14453   */\n      revert\n        /* \"#utility.yul\":14392:14455   */\n    tag_326:\n        /* \"#utility.yul\":14339:14461   */\n      pop\n      jump\t// out\n        /* \"#utility.yul\":14467:14605   */\n    tag_161:\n        /* \"#utility.yul\":14548:14580   */\n      tag_328\n        /* \"#utility.yul\":14574:14579   */\n      dup2\n        /* \"#utility.yul\":14548:14580   */\n      tag_206\n      jump\t// in\n    tag_328:\n        /* \"#utility.yul\":14541:14546   */\n      dup2\n        /* \"#utility.yul\":14538:14581   */\n      eq\n        /* \"#utility.yul\":14528:14599   */\n      tag_329\n      jumpi\n        /* \"#utility.yul\":14595:14596   */\n      0x00\n        /* \"#utility.yul\":14592:14593   */\n      dup1\n        /* \"#utility.yul\":14585:14597   */\n      revert\n        /* \"#utility.yul\":14528:14599   */\n    tag_329:\n        /* \"#utility.yul\":14467:14605   */\n      pop\n      jump\t// out\n        /* \"#utility.yul\":14611:14727   */\n    tag_165:\n        /* \"#utility.yul\":14681:14702   */\n      tag_331\n        /* \"#utility.yul\":14696:14701   */\n      dup2\n        /* \"#utility.yul\":14681:14702   */\n      tag_210\n      jump\t// in\n    tag_331:\n        /* \"#utility.yul\":14674:14679   */\n      dup2\n        /* \"#utility.yul\":14671:14703   */\n      eq\n        /* \"#utility.yul\":14661:14721   */\n      tag_332\n      jumpi\n        /* \"#utility.yul\":14717:14718   */\n      0x00\n        /* \"#utility.yul\":14714:14715   */\n      dup1\n        /* \"#utility.yul\":14707:14719   */\n      revert\n        /* \"#utility.yul\":14661:14721   */\n    tag_332:\n        /* \"#utility.yul\":14611:14727   */\n      pop\n      jump\t// out\n        /* \"#utility.yul\":14733:14855   */\n    tag_175:\n        /* \"#utility.yul\":14806:14830   */\n      tag_334\n        /* \"#utility.yul\":14824:14829   */\n      dup2\n        /* \"#utility.yul\":14806:14830   */\n      tag_244\n      jump\t// in\n    tag_334:\n        /* \"#utility.yul\":14799:14804   */\n      dup2\n        /* \"#utility.yul\":14796:14831   */\n      eq\n        /* \"#utility.yul\":14786:14849   */\n      tag_335\n      jumpi\n        /* \"#utility.yul\":14845:14846   */\n      0x00\n        /* \"#utility.yul\":14842:14843   */\n      dup1\n        /* \"#utility.yul\":14835:14847   */\n      revert\n        /* \"#utility.yul\":14786:14849   */\n    tag_335:\n        /* \"#utility.yul\":14733:14855   */\n      pop\n      jump\t// out\n\n    auxdata: 0xa2646970667358221220f44ca33f8fd6e2ade93ed66025d599441c91f7d86da7d86386288de1ab28f42464736f6c63430008070033\n}\n",
				"bytecode": {
					"linkReferences": {},
					"object": "608060405234801561001057600080fd5b50336000806101000a81548173ffffffffffffffffffffffffffffffffffffffff021916908373ffffffffffffffffffffffffffffffffffffffff1602179055506112ff806100606000396000f3fe6080604052600436106100555760003560e01c806331d575c51461005a57806351cff8d914610083578063722713f71461009f5780637285fd3a146100ca578063a25db8ce1461010c578063f340fa0114610149575b600080fd5b34801561006657600080fd5b50610081600480360381019061007c9190610b83565b610165565b005b61009d60048036038101906100989190610b56565b610322565b005b3480156100ab57600080fd5b506100b4610510565b6040516100c19190610e71565b60405180910390f35b3480156100d657600080fd5b506100f160048036038101906100ec9190610c48565b610518565b60405161010396959493929190610d67565b60405180910390f35b34801561011857600080fd5b50610133600480360381019061012e9190610b29565b6106a1565b6040516101409190610dd6565b60405180910390f35b610163600480360381019061015e9190610b29565b610795565b005b60008054906101000a900473ffffffffffffffffffffffffffffffffffffffff1673ffffffffffffffffffffffffffffffffffffffff163373ffffffffffffffffffffffffffffffffffffffff16146101f3576040517f08c379a00000000000000000000000000000000000000000000000000000000081526004016101ea90610e51565b60405180910390fd5b60016040518060c001604052808873ffffffffffffffffffffffffffffffffffffffff168152602001878152602001868152602001858152602001848152602001831515815250908060018154018082558091505060019003906000526020600020906006020160009091909190915060008201518160000160006101000a81548173ffffffffffffffffffffffffffffffffffffffff021916908373ffffffffffffffffffffffffffffffffffffffff16021790555060208201518160010190805190602001906102c69291906109c2565b5060408201518160020190805190602001906102e39291906109c2565b50606082015181600301556080820151816004015560a08201518160050160006101000a81548160ff0219169083151502179055505050505050505050565b600061032d826107a1565b905060018181548110610343576103426110fa565b5b906000526020600020906006020160000160009054906101000a900473ffffffffffffffffffffffffffffffffffffffff1673ffffffffffffffffffffffffffffffffffffffff163373ffffffffffffffffffffffffffffffffffffffff16146103e2576040517f08c379a00000000000000000000000000000000000000000000000000000000081526004016103d990610e11565b60405180910390fd5b60011515600182815481106103fa576103f96110fa565b5b906000526020600020906006020160050160009054906101000a900460ff1615151461045b576040517f08c379a000000000000000000000000000000000000000000000000000000000815260040161045290610df1565b60405180910390fd5b6001818154811061046f5761046e6110fa565b5b906000526020600020906006020160000160009054906101000a900473ffffffffffffffffffffffffffffffffffffffff1673ffffffffffffffffffffffffffffffffffffffff166108fc600183815481106104ce576104cd6110fa565b5b9060005260206000209060060201600401549081150290604051600060405180830381858888f1935050505015801561050b573d6000803e3d6000fd5b505050565b600047905090565b6001818154811061052857600080fd5b90600052602060002090600602016000915090508060000160009054906101000a900473ffffffffffffffffffffffffffffffffffffffff169080600101805461057190610ff0565b80601f016020809104026020016040519081016040528092919081815260200182805461059d90610ff0565b80156105ea5780601f106105bf576101008083540402835291602001916105ea565b820191906000526020600020905b8154815290600101906020018083116105cd57829003601f168201915b5050505050908060020180546105ff90610ff0565b80601f016020809104026020016040519081016040528092919081815260200182805461062b90610ff0565b80156106785780601f1061064d57610100808354040283529160200191610678565b820191906000526020600020905b81548152906001019060200180831161065b57829003601f168201915b5050505050908060030154908060040154908060050160009054906101000a900460ff16905086565b6000806106ad836107a1565b9050600181815481106106c3576106c26110fa565b5b9060005260206000209060060201600301544211610716576040517f08c379a000000000000000000000000000000000000000000000000000000000815260040161070d90610e31565b60405180910390fd5b6001818154811061072a576107296110fa565b5b90600052602060002090600602016003015442111561078a576001808281548110610758576107576110fa565b5b906000526020600020906006020160050160006101000a81548160ff0219169083151502179055506001915050610790565b60009150505b919050565b61079e81610857565b50565b600080600090505b60018054905081101561084b578273ffffffffffffffffffffffffffffffffffffffff16600182815481106107e1576107e06110fa565b5b906000526020600020906006020160000160009054906101000a900473ffffffffffffffffffffffffffffffffffffffff1673ffffffffffffffffffffffffffffffffffffffff1614156108385780915050610852565b808061084390611053565b9150506107a9565b5061270f90505b919050565b60008054906101000a900473ffffffffffffffffffffffffffffffffffffffff1673ffffffffffffffffffffffffffffffffffffffff163373ffffffffffffffffffffffffffffffffffffffff16146108e5576040517f08c379a00000000000000000000000000000000000000000000000000000000081526004016108dc90610e51565b60405180910390fd5b60005b6001805490508110156109be578173ffffffffffffffffffffffffffffffffffffffff16600182815481106109205761091f6110fa565b5b906000526020600020906006020160000160009054906101000a900473ffffffffffffffffffffffffffffffffffffffff1673ffffffffffffffffffffffffffffffffffffffff1614156109ab573460018281548110610983576109826110fa565b5b906000526020600020906006020160040160008282546109a39190610efe565b925050819055505b80806109b690611053565b9150506108e8565b5050565b8280546109ce90610ff0565b90600052602060002090601f0160209004810192826109f05760008555610a37565b82601f10610a0957805160ff1916838001178555610a37565b82800160010185558215610a37579182015b82811115610a36578251825591602001919060010190610a1b565b5b509050610a449190610a48565b5090565b5b80821115610a61576000816000905550600101610a49565b5090565b6000610a78610a7384610eb1565b610e8c565b905082815260208101848484011115610a9457610a9361115d565b5b610a9f848285610fae565b509392505050565b600081359050610ab68161126d565b92915050565b600081359050610acb81611284565b92915050565b600081359050610ae08161129b565b92915050565b600082601f830112610afb57610afa611158565b5b8135610b0b848260208601610a65565b91505092915050565b600081359050610b23816112b2565b92915050565b600060208284031215610b3f57610b3e611167565b5b6000610b4d84828501610aa7565b91505092915050565b600060208284031215610b6c57610b6b611167565b5b6000610b7a84828501610abc565b91505092915050565b60008060008060008060c08789031215610ba057610b9f611167565b5b6000610bae89828a01610abc565b965050602087013567ffffffffffffffff811115610bcf57610bce611162565b5b610bdb89828a01610ae6565b955050604087013567ffffffffffffffff811115610bfc57610bfb611162565b5b610c0889828a01610ae6565b9450506060610c1989828a01610b14565b9350506080610c2a89828a01610b14565b92505060a0610c3b89828a01610ad1565b9150509295509295509295565b600060208284031215610c5e57610c5d611167565b5b6000610c6c84828501610b14565b91505092915050565b610c7e81610f66565b82525050565b610c8d81610f78565b82525050565b6000610c9e82610ee2565b610ca88185610eed565b9350610cb8818560208601610fbd565b610cc18161116c565b840191505092915050565b6000610cd9602983610eed565b9150610ce48261117d565b604082019050919050565b6000610cfc602483610eed565b9150610d07826111cc565b604082019050919050565b6000610d1f601783610eed565b9150610d2a8261121b565b602082019050919050565b6000610d42601b83610eed565b9150610d4d82611244565b602082019050919050565b610d6181610fa4565b82525050565b600060c082019050610d7c6000830189610c75565b8181036020830152610d8e8188610c93565b90508181036040830152610da28187610c93565b9050610db16060830186610d58565b610dbe6080830185610d58565b610dcb60a0830184610c84565b979650505050505050565b6000602082019050610deb6000830184610c84565b92915050565b60006020820190508181036000830152610e0a81610ccc565b9050919050565b60006020820190508181036000830152610e2a81610cef565b9050919050565b60006020820190508181036000830152610e4a81610d12565b9050919050565b60006020820190508181036000830152610e6a81610d35565b9050919050565b6000602082019050610e866000830184610d58565b92915050565b6000610e96610ea7565b9050610ea28282611022565b919050565b6000604051905090565b600067ffffffffffffffff821115610ecc57610ecb611129565b5b610ed58261116c565b9050602081019050919050565b600081519050919050565b600082825260208201905092915050565b6000610f0982610fa4565b9150610f1483610fa4565b9250827fffffffffffffffffffffffffffffffffffffffffffffffffffffffffffffffff03821115610f4957610f4861109c565b5b828201905092915050565b6000610f5f82610f84565b9050919050565b6000610f7182610f84565b9050919050565b60008115159050919050565b600073ffffffffffffffffffffffffffffffffffffffff82169050919050565b6000819050919050565b82818337600083830152505050565b60005b83811015610fdb578082015181840152602081019050610fc0565b83811115610fea576000848401525b50505050565b6000600282049050600182168061100857607f821691505b6020821081141561101c5761101b6110cb565b5b50919050565b61102b8261116c565b810181811067ffffffffffffffff8211171561104a57611049611129565b5b80604052505050565b600061105e82610fa4565b91507fffffffffffffffffffffffffffffffffffffffffffffffffffffffffffffffff8214156110915761109061109c565b5b600182019050919050565b7f4e487b7100000000000000000000000000000000000000000000000000000000600052601160045260246000fd5b7f4e487b7100000000000000000000000000000000000000000000000000000000600052602260045260246000fd5b7f4e487b7100000000000000000000000000000000000000000000000000000000600052603260045260246000fd5b7f4e487b7100000000000000000000000000000000000000000000000000000000600052604160045260246000fd5b600080fd5b600080fd5b600080fd5b600080fd5b6000601f19601f8301169050919050565b7f596f7520617265206e6f742061626c6520746f2077697468647261772061742060008201527f746869732074696d650000000000000000000000000000000000000000000000602082015250565b7f596f752063616e2774207769746872617720736f6d656f6e6520656c7365206d60008201527f6f6e657900000000000000000000000000000000000000000000000000000000602082015250565b7f596f752063616e6e6f74207769746864726177206e6f77000000000000000000600082015250565b7f4f6e6c7920746865206f776e65722063616e20616464206b6964730000000000600082015250565b61127681610f54565b811461128157600080fd5b50565b61128d81610f66565b811461129857600080fd5b50565b6112a481610f78565b81146112af57600080fd5b50565b6112bb81610fa4565b81146112c657600080fd5b5056fea2646970667358221220f44ca33f8fd6e2ade93ed66025d599441c91f7d86da7d86386288de1ab28f42464736f6c63430008070033",
					"opcodes": "PUSH1 0x80 PUSH1 0x40 MSTORE CALLVALUE DUP1 ISZERO PUSH2 0x10 JUMPI PUSH1 0x0 DUP1 REVERT JUMPDEST POP CALLER PUSH1 0x0 DUP1 PUSH2 0x100 EXP DUP2 SLOAD DUP2 PUSH20 0xFFFFFFFFFFFFFFFFFFFFFFFFFFFFFFFFFFFFFFFF MUL NOT AND SWAP1 DUP4 PUSH20 0xFFFFFFFFFFFFFFFFFFFFFFFFFFFFFFFFFFFFFFFF AND MUL OR SWAP1 SSTORE POP PUSH2 0x12FF DUP1 PUSH2 0x60 PUSH1 0x0 CODECOPY PUSH1 0x0 RETURN INVALID PUSH1 0x80 PUSH1 0x40 MSTORE PUSH1 0x4 CALLDATASIZE LT PUSH2 0x55 JUMPI PUSH1 0x0 CALLDATALOAD PUSH1 0xE0 SHR DUP1 PUSH4 0x31D575C5 EQ PUSH2 0x5A JUMPI DUP1 PUSH4 0x51CFF8D9 EQ PUSH2 0x83 JUMPI DUP1 PUSH4 0x722713F7 EQ PUSH2 0x9F JUMPI DUP1 PUSH4 0x7285FD3A EQ PUSH2 0xCA JUMPI DUP1 PUSH4 0xA25DB8CE EQ PUSH2 0x10C JUMPI DUP1 PUSH4 0xF340FA01 EQ PUSH2 0x149 JUMPI JUMPDEST PUSH1 0x0 DUP1 REVERT JUMPDEST CALLVALUE DUP1 ISZERO PUSH2 0x66 JUMPI PUSH1 0x0 DUP1 REVERT JUMPDEST POP PUSH2 0x81 PUSH1 0x4 DUP1 CALLDATASIZE SUB DUP2 ADD SWAP1 PUSH2 0x7C SWAP2 SWAP1 PUSH2 0xB83 JUMP JUMPDEST PUSH2 0x165 JUMP JUMPDEST STOP JUMPDEST PUSH2 0x9D PUSH1 0x4 DUP1 CALLDATASIZE SUB DUP2 ADD SWAP1 PUSH2 0x98 SWAP2 SWAP1 PUSH2 0xB56 JUMP JUMPDEST PUSH2 0x322 JUMP JUMPDEST STOP JUMPDEST CALLVALUE DUP1 ISZERO PUSH2 0xAB JUMPI PUSH1 0x0 DUP1 REVERT JUMPDEST POP PUSH2 0xB4 PUSH2 0x510 JUMP JUMPDEST PUSH1 0x40 MLOAD PUSH2 0xC1 SWAP2 SWAP1 PUSH2 0xE71 JUMP JUMPDEST PUSH1 0x40 MLOAD DUP1 SWAP2 SUB SWAP1 RETURN JUMPDEST CALLVALUE DUP1 ISZERO PUSH2 0xD6 JUMPI PUSH1 0x0 DUP1 REVERT JUMPDEST POP PUSH2 0xF1 PUSH1 0x4 DUP1 CALLDATASIZE SUB DUP2 ADD SWAP1 PUSH2 0xEC SWAP2 SWAP1 PUSH2 0xC48 JUMP JUMPDEST PUSH2 0x518 JUMP JUMPDEST PUSH1 0x40 MLOAD PUSH2 0x103 SWAP7 SWAP6 SWAP5 SWAP4 SWAP3 SWAP2 SWAP1 PUSH2 0xD67 JUMP JUMPDEST PUSH1 0x40 MLOAD DUP1 SWAP2 SUB SWAP1 RETURN JUMPDEST CALLVALUE DUP1 ISZERO PUSH2 0x118 JUMPI PUSH1 0x0 DUP1 REVERT JUMPDEST POP PUSH2 0x133 PUSH1 0x4 DUP1 CALLDATASIZE SUB DUP2 ADD SWAP1 PUSH2 0x12E SWAP2 SWAP1 PUSH2 0xB29 JUMP JUMPDEST PUSH2 0x6A1 JUMP JUMPDEST PUSH1 0x40 MLOAD PUSH2 0x140 SWAP2 SWAP1 PUSH2 0xDD6 JUMP JUMPDEST PUSH1 0x40 MLOAD DUP1 SWAP2 SUB SWAP1 RETURN JUMPDEST PUSH2 0x163 PUSH1 0x4 DUP1 CALLDATASIZE SUB DUP2 ADD SWAP1 PUSH2 0x15E SWAP2 SWAP1 PUSH2 0xB29 JUMP JUMPDEST PUSH2 0x795 JUMP JUMPDEST STOP JUMPDEST PUSH1 0x0 DUP1 SLOAD SWAP1 PUSH2 0x100 EXP SWAP1 DIV PUSH20 0xFFFFFFFFFFFFFFFFFFFFFFFFFFFFFFFFFFFFFFFF AND PUSH20 0xFFFFFFFFFFFFFFFFFFFFFFFFFFFFFFFFFFFFFFFF AND CALLER PUSH20 0xFFFFFFFFFFFFFFFFFFFFFFFFFFFFFFFFFFFFFFFF AND EQ PUSH2 0x1F3 JUMPI PUSH1 0x40 MLOAD PUSH32 0x8C379A000000000000000000000000000000000000000000000000000000000 DUP2 MSTORE PUSH1 0x4 ADD PUSH2 0x1EA SWAP1 PUSH2 0xE51 JUMP JUMPDEST PUSH1 0x40 MLOAD DUP1 SWAP2 SUB SWAP1 REVERT JUMPDEST PUSH1 0x1 PUSH1 0x40 MLOAD DUP1 PUSH1 0xC0 ADD PUSH1 0x40 MSTORE DUP1 DUP9 PUSH20 0xFFFFFFFFFFFFFFFFFFFFFFFFFFFFFFFFFFFFFFFF AND DUP2 MSTORE PUSH1 0x20 ADD DUP8 DUP2 MSTORE PUSH1 0x20 ADD DUP7 DUP2 MSTORE PUSH1 0x20 ADD DUP6 DUP2 MSTORE PUSH1 0x20 ADD DUP5 DUP2 MSTORE PUSH1 0x20 ADD DUP4 ISZERO ISZERO DUP2 MSTORE POP SWAP1 DUP1 PUSH1 0x1 DUP2 SLOAD ADD DUP1 DUP3 SSTORE DUP1 SWAP2 POP POP PUSH1 0x1 SWAP1 SUB SWAP1 PUSH1 0x0 MSTORE PUSH1 0x20 PUSH1 0x0 KECCAK256 SWAP1 PUSH1 0x6 MUL ADD PUSH1 0x0 SWAP1 SWAP2 SWAP1 SWAP2 SWAP1 SWAP2 POP PUSH1 0x0 DUP3 ADD MLOAD DUP2 PUSH1 0x0 ADD PUSH1 0x0 PUSH2 0x100 EXP DUP2 SLOAD DUP2 PUSH20 0xFFFFFFFFFFFFFFFFFFFFFFFFFFFFFFFFFFFFFFFF MUL NOT AND SWAP1 DUP4 PUSH20 0xFFFFFFFFFFFFFFFFFFFFFFFFFFFFFFFFFFFFFFFF AND MUL OR SWAP1 SSTORE POP PUSH1 0x20 DUP3 ADD MLOAD DUP2 PUSH1 0x1 ADD SWAP1 DUP1 MLOAD SWAP1 PUSH1 0x20 ADD SWAP1 PUSH2 0x2C6 SWAP3 SWAP2 SWAP1 PUSH2 0x9C2 JUMP JUMPDEST POP PUSH1 0x40 DUP3 ADD MLOAD DUP2 PUSH1 0x2 ADD SWAP1 DUP1 MLOAD SWAP1 PUSH1 0x20 ADD SWAP1 PUSH2 0x2E3 SWAP3 SWAP2 SWAP1 PUSH2 0x9C2 JUMP JUMPDEST POP PUSH1 0x60 DUP3 ADD MLOAD DUP2 PUSH1 0x3 ADD SSTORE PUSH1 0x80 DUP3 ADD MLOAD DUP2 PUSH1 0x4 ADD SSTORE PUSH1 0xA0 DUP3 ADD MLOAD DUP2 PUSH1 0x5 ADD PUSH1 0x0 PUSH2 0x100 EXP DUP2 SLOAD DUP2 PUSH1 0xFF MUL NOT AND SWAP1 DUP4 ISZERO ISZERO MUL OR SWAP1 SSTORE POP POP POP POP POP POP POP POP POP JUMP JUMPDEST PUSH1 0x0 PUSH2 0x32D DUP3 PUSH2 0x7A1 JUMP JUMPDEST SWAP1 POP PUSH1 0x1 DUP2 DUP2 SLOAD DUP2 LT PUSH2 0x343 JUMPI PUSH2 0x342 PUSH2 0x10FA JUMP JUMPDEST JUMPDEST SWAP1 PUSH1 0x0 MSTORE PUSH1 0x20 PUSH1 0x0 KECCAK256 SWAP1 PUSH1 0x6 MUL ADD PUSH1 0x0 ADD PUSH1 0x0 SWAP1 SLOAD SWAP1 PUSH2 0x100 EXP SWAP1 DIV PUSH20 0xFFFFFFFFFFFFFFFFFFFFFFFFFFFFFFFFFFFFFFFF AND PUSH20 0xFFFFFFFFFFFFFFFFFFFFFFFFFFFFFFFFFFFFFFFF AND CALLER PUSH20 0xFFFFFFFFFFFFFFFFFFFFFFFFFFFFFFFFFFFFFFFF AND EQ PUSH2 0x3E2 JUMPI PUSH1 0x40 MLOAD PUSH32 0x8C379A000000000000000000000000000000000000000000000000000000000 DUP2 MSTORE PUSH1 0x4 ADD PUSH2 0x3D9 SWAP1 PUSH2 0xE11 JUMP JUMPDEST PUSH1 0x40 MLOAD DUP1 SWAP2 SUB SWAP1 REVERT JUMPDEST PUSH1 0x1 ISZERO ISZERO PUSH1 0x1 DUP3 DUP2 SLOAD DUP2 LT PUSH2 0x3FA JUMPI PUSH2 0x3F9 PUSH2 0x10FA JUMP JUMPDEST JUMPDEST SWAP1 PUSH1 0x0 MSTORE PUSH1 0x20 PUSH1 0x0 KECCAK256 SWAP1 PUSH1 0x6 MUL ADD PUSH1 0x5 ADD PUSH1 0x0 SWAP1 SLOAD SWAP1 PUSH2 0x100 EXP SWAP1 DIV PUSH1 0xFF AND ISZERO ISZERO EQ PUSH2 0x45B JUMPI PUSH1 0x40 MLOAD PUSH32 0x8C379A000000000000000000000000000000000000000000000000000000000 DUP2 MSTORE PUSH1 0x4 ADD PUSH2 0x452 SWAP1 PUSH2 0xDF1 JUMP JUMPDEST PUSH1 0x40 MLOAD DUP1 SWAP2 SUB SWAP1 REVERT JUMPDEST PUSH1 0x1 DUP2 DUP2 SLOAD DUP2 LT PUSH2 0x46F JUMPI PUSH2 0x46E PUSH2 0x10FA JUMP JUMPDEST JUMPDEST SWAP1 PUSH1 0x0 MSTORE PUSH1 0x20 PUSH1 0x0 KECCAK256 SWAP1 PUSH1 0x6 MUL ADD PUSH1 0x0 ADD PUSH1 0x0 SWAP1 SLOAD SWAP1 PUSH2 0x100 EXP SWAP1 DIV PUSH20 0xFFFFFFFFFFFFFFFFFFFFFFFFFFFFFFFFFFFFFFFF AND PUSH20 0xFFFFFFFFFFFFFFFFFFFFFFFFFFFFFFFFFFFFFFFF AND PUSH2 0x8FC PUSH1 0x1 DUP4 DUP2 SLOAD DUP2 LT PUSH2 0x4CE JUMPI PUSH2 0x4CD PUSH2 0x10FA JUMP JUMPDEST JUMPDEST SWAP1 PUSH1 0x0 MSTORE PUSH1 0x20 PUSH1 0x0 KECCAK256 SWAP1 PUSH1 0x6 MUL ADD PUSH1 0x4 ADD SLOAD SWAP1 DUP2 ISZERO MUL SWAP1 PUSH1 0x40 MLOAD PUSH1 0x0 PUSH1 0x40 MLOAD DUP1 DUP4 SUB DUP2 DUP6 DUP9 DUP9 CALL SWAP4 POP POP POP POP ISZERO DUP1 ISZERO PUSH2 0x50B JUMPI RETURNDATASIZE PUSH1 0x0 DUP1 RETURNDATACOPY RETURNDATASIZE PUSH1 0x0 REVERT JUMPDEST POP POP POP JUMP JUMPDEST PUSH1 0x0 SELFBALANCE SWAP1 POP SWAP1 JUMP JUMPDEST PUSH1 0x1 DUP2 DUP2 SLOAD DUP2 LT PUSH2 0x528 JUMPI PUSH1 0x0 DUP1 REVERT JUMPDEST SWAP1 PUSH1 0x0 MSTORE PUSH1 0x20 PUSH1 0x0 KECCAK256 SWAP1 PUSH1 0x6 MUL ADD PUSH1 0x0 SWAP2 POP SWAP1 POP DUP1 PUSH1 0x0 ADD PUSH1 0x0 SWAP1 SLOAD SWAP1 PUSH2 0x100 EXP SWAP1 DIV PUSH20 0xFFFFFFFFFFFFFFFFFFFFFFFFFFFFFFFFFFFFFFFF AND SWAP1 DUP1 PUSH1 0x1 ADD DUP1 SLOAD PUSH2 0x571 SWAP1 PUSH2 0xFF0 JUMP JUMPDEST DUP1 PUSH1 0x1F ADD PUSH1 0x20 DUP1 SWAP2 DIV MUL PUSH1 0x20 ADD PUSH1 0x40 MLOAD SWAP1 DUP2 ADD PUSH1 0x40 MSTORE DUP1 SWAP3 SWAP2 SWAP1 DUP2 DUP2 MSTORE PUSH1 0x20 ADD DUP3 DUP1 SLOAD PUSH2 0x59D SWAP1 PUSH2 0xFF0 JUMP JUMPDEST DUP1 ISZERO PUSH2 0x5EA JUMPI DUP1 PUSH1 0x1F LT PUSH2 0x5BF JUMPI PUSH2 0x100 DUP1 DUP4 SLOAD DIV MUL DUP4 MSTORE SWAP2 PUSH1 0x20 ADD SWAP2 PUSH2 0x5EA JUMP JUMPDEST DUP3 ADD SWAP2 SWAP1 PUSH1 0x0 MSTORE PUSH1 0x20 PUSH1 0x0 KECCAK256 SWAP1 JUMPDEST DUP2 SLOAD DUP2 MSTORE SWAP1 PUSH1 0x1 ADD SWAP1 PUSH1 0x20 ADD DUP1 DUP4 GT PUSH2 0x5CD JUMPI DUP3 SWAP1 SUB PUSH1 0x1F AND DUP3 ADD SWAP2 JUMPDEST POP POP POP POP POP SWAP1 DUP1 PUSH1 0x2 ADD DUP1 SLOAD PUSH2 0x5FF SWAP1 PUSH2 0xFF0 JUMP JUMPDEST DUP1 PUSH1 0x1F ADD PUSH1 0x20 DUP1 SWAP2 DIV MUL PUSH1 0x20 ADD PUSH1 0x40 MLOAD SWAP1 DUP2 ADD PUSH1 0x40 MSTORE DUP1 SWAP3 SWAP2 SWAP1 DUP2 DUP2 MSTORE PUSH1 0x20 ADD DUP3 DUP1 SLOAD PUSH2 0x62B SWAP1 PUSH2 0xFF0 JUMP JUMPDEST DUP1 ISZERO PUSH2 0x678 JUMPI DUP1 PUSH1 0x1F LT PUSH2 0x64D JUMPI PUSH2 0x100 DUP1 DUP4 SLOAD DIV MUL DUP4 MSTORE SWAP2 PUSH1 0x20 ADD SWAP2 PUSH2 0x678 JUMP JUMPDEST DUP3 ADD SWAP2 SWAP1 PUSH1 0x0 MSTORE PUSH1 0x20 PUSH1 0x0 KECCAK256 SWAP1 JUMPDEST DUP2 SLOAD DUP2 MSTORE SWAP1 PUSH1 0x1 ADD SWAP1 PUSH1 0x20 ADD DUP1 DUP4 GT PUSH2 0x65B JUMPI DUP3 SWAP1 SUB PUSH1 0x1F AND DUP3 ADD SWAP2 JUMPDEST POP POP POP POP POP SWAP1 DUP1 PUSH1 0x3 ADD SLOAD SWAP1 DUP1 PUSH1 0x4 ADD SLOAD SWAP1 DUP1 PUSH1 0x5 ADD PUSH1 0x0 SWAP1 SLOAD SWAP1 PUSH2 0x100 EXP SWAP1 DIV PUSH1 0xFF AND SWAP1 POP DUP7 JUMP JUMPDEST PUSH1 0x0 DUP1 PUSH2 0x6AD DUP4 PUSH2 0x7A1 JUMP JUMPDEST SWAP1 POP PUSH1 0x1 DUP2 DUP2 SLOAD DUP2 LT PUSH2 0x6C3 JUMPI PUSH2 0x6C2 PUSH2 0x10FA JUMP JUMPDEST JUMPDEST SWAP1 PUSH1 0x0 MSTORE PUSH1 0x20 PUSH1 0x0 KECCAK256 SWAP1 PUSH1 0x6 MUL ADD PUSH1 0x3 ADD SLOAD TIMESTAMP GT PUSH2 0x716 JUMPI PUSH1 0x40 MLOAD PUSH32 0x8C379A000000000000000000000000000000000000000000000000000000000 DUP2 MSTORE PUSH1 0x4 ADD PUSH2 0x70D SWAP1 PUSH2 0xE31 JUMP JUMPDEST PUSH1 0x40 MLOAD DUP1 SWAP2 SUB SWAP1 REVERT JUMPDEST PUSH1 0x1 DUP2 DUP2 SLOAD DUP2 LT PUSH2 0x72A JUMPI PUSH2 0x729 PUSH2 0x10FA JUMP JUMPDEST JUMPDEST SWAP1 PUSH1 0x0 MSTORE PUSH1 0x20 PUSH1 0x0 KECCAK256 SWAP1 PUSH1 0x6 MUL ADD PUSH1 0x3 ADD SLOAD TIMESTAMP GT ISZERO PUSH2 0x78A JUMPI PUSH1 0x1 DUP1 DUP3 DUP2 SLOAD DUP2 LT PUSH2 0x758 JUMPI PUSH2 0x757 PUSH2 0x10FA JUMP JUMPDEST JUMPDEST SWAP1 PUSH1 0x0 MSTORE PUSH1 0x20 PUSH1 0x0 KECCAK256 SWAP1 PUSH1 0x6 MUL ADD PUSH1 0x5 ADD PUSH1 0x0 PUSH2 0x100 EXP DUP2 SLOAD DUP2 PUSH1 0xFF MUL NOT AND SWAP1 DUP4 ISZERO ISZERO MUL OR SWAP1 SSTORE POP PUSH1 0x1 SWAP2 POP POP PUSH2 0x790 JUMP JUMPDEST PUSH1 0x0 SWAP2 POP POP JUMPDEST SWAP2 SWAP1 POP JUMP JUMPDEST PUSH2 0x79E DUP2 PUSH2 0x857 JUMP JUMPDEST POP JUMP JUMPDEST PUSH1 0x0 DUP1 PUSH1 0x0 SWAP1 POP JUMPDEST PUSH1 0x1 DUP1 SLOAD SWAP1 POP DUP2 LT ISZERO PUSH2 0x84B JUMPI DUP3 PUSH20 0xFFFFFFFFFFFFFFFFFFFFFFFFFFFFFFFFFFFFFFFF AND PUSH1 0x1 DUP3 DUP2 SLOAD DUP2 LT PUSH2 0x7E1 JUMPI PUSH2 0x7E0 PUSH2 0x10FA JUMP JUMPDEST JUMPDEST SWAP1 PUSH1 0x0 MSTORE PUSH1 0x20 PUSH1 0x0 KECCAK256 SWAP1 PUSH1 0x6 MUL ADD PUSH1 0x0 ADD PUSH1 0x0 SWAP1 SLOAD SWAP1 PUSH2 0x100 EXP SWAP1 DIV PUSH20 0xFFFFFFFFFFFFFFFFFFFFFFFFFFFFFFFFFFFFFFFF AND PUSH20 0xFFFFFFFFFFFFFFFFFFFFFFFFFFFFFFFFFFFFFFFF AND EQ ISZERO PUSH2 0x838 JUMPI DUP1 SWAP2 POP POP PUSH2 0x852 JUMP JUMPDEST DUP1 DUP1 PUSH2 0x843 SWAP1 PUSH2 0x1053 JUMP JUMPDEST SWAP2 POP POP PUSH2 0x7A9 JUMP JUMPDEST POP PUSH2 0x270F SWAP1 POP JUMPDEST SWAP2 SWAP1 POP JUMP JUMPDEST PUSH1 0x0 DUP1 SLOAD SWAP1 PUSH2 0x100 EXP SWAP1 DIV PUSH20 0xFFFFFFFFFFFFFFFFFFFFFFFFFFFFFFFFFFFFFFFF AND PUSH20 0xFFFFFFFFFFFFFFFFFFFFFFFFFFFFFFFFFFFFFFFF AND CALLER PUSH20 0xFFFFFFFFFFFFFFFFFFFFFFFFFFFFFFFFFFFFFFFF AND EQ PUSH2 0x8E5 JUMPI PUSH1 0x40 MLOAD PUSH32 0x8C379A000000000000000000000000000000000000000000000000000000000 DUP2 MSTORE PUSH1 0x4 ADD PUSH2 0x8DC SWAP1 PUSH2 0xE51 JUMP JUMPDEST PUSH1 0x40 MLOAD DUP1 SWAP2 SUB SWAP1 REVERT JUMPDEST PUSH1 0x0 JUMPDEST PUSH1 0x1 DUP1 SLOAD SWAP1 POP DUP2 LT ISZERO PUSH2 0x9BE JUMPI DUP2 PUSH20 0xFFFFFFFFFFFFFFFFFFFFFFFFFFFFFFFFFFFFFFFF AND PUSH1 0x1 DUP3 DUP2 SLOAD DUP2 LT PUSH2 0x920 JUMPI PUSH2 0x91F PUSH2 0x10FA JUMP JUMPDEST JUMPDEST SWAP1 PUSH1 0x0 MSTORE PUSH1 0x20 PUSH1 0x0 KECCAK256 SWAP1 PUSH1 0x6 MUL ADD PUSH1 0x0 ADD PUSH1 0x0 SWAP1 SLOAD SWAP1 PUSH2 0x100 EXP SWAP1 DIV PUSH20 0xFFFFFFFFFFFFFFFFFFFFFFFFFFFFFFFFFFFFFFFF AND PUSH20 0xFFFFFFFFFFFFFFFFFFFFFFFFFFFFFFFFFFFFFFFF AND EQ ISZERO PUSH2 0x9AB JUMPI CALLVALUE PUSH1 0x1 DUP3 DUP2 SLOAD DUP2 LT PUSH2 0x983 JUMPI PUSH2 0x982 PUSH2 0x10FA JUMP JUMPDEST JUMPDEST SWAP1 PUSH1 0x0 MSTORE PUSH1 0x20 PUSH1 0x0 KECCAK256 SWAP1 PUSH1 0x6 MUL ADD PUSH1 0x4 ADD PUSH1 0x0 DUP3 DUP3 SLOAD PUSH2 0x9A3 SWAP2 SWAP1 PUSH2 0xEFE JUMP JUMPDEST SWAP3 POP POP DUP2 SWAP1 SSTORE POP JUMPDEST DUP1 DUP1 PUSH2 0x9B6 SWAP1 PUSH2 0x1053 JUMP JUMPDEST SWAP2 POP POP PUSH2 0x8E8 JUMP JUMPDEST POP POP JUMP JUMPDEST DUP3 DUP1 SLOAD PUSH2 0x9CE SWAP1 PUSH2 0xFF0 JUMP JUMPDEST SWAP1 PUSH1 0x0 MSTORE PUSH1 0x20 PUSH1 0x0 KECCAK256 SWAP1 PUSH1 0x1F ADD PUSH1 0x20 SWAP1 DIV DUP2 ADD SWAP3 DUP3 PUSH2 0x9F0 JUMPI PUSH1 0x0 DUP6 SSTORE PUSH2 0xA37 JUMP JUMPDEST DUP3 PUSH1 0x1F LT PUSH2 0xA09 JUMPI DUP1 MLOAD PUSH1 0xFF NOT AND DUP4 DUP1 ADD OR DUP6 SSTORE PUSH2 0xA37 JUMP JUMPDEST DUP3 DUP1 ADD PUSH1 0x1 ADD DUP6 SSTORE DUP3 ISZERO PUSH2 0xA37 JUMPI SWAP2 DUP3 ADD JUMPDEST DUP3 DUP2 GT ISZERO PUSH2 0xA36 JUMPI DUP3 MLOAD DUP3 SSTORE SWAP2 PUSH1 0x20 ADD SWAP2 SWAP1 PUSH1 0x1 ADD SWAP1 PUSH2 0xA1B JUMP JUMPDEST JUMPDEST POP SWAP1 POP PUSH2 0xA44 SWAP2 SWAP1 PUSH2 0xA48 JUMP JUMPDEST POP SWAP1 JUMP JUMPDEST JUMPDEST DUP1 DUP3 GT ISZERO PUSH2 0xA61 JUMPI PUSH1 0x0 DUP2 PUSH1 0x0 SWAP1 SSTORE POP PUSH1 0x1 ADD PUSH2 0xA49 JUMP JUMPDEST POP SWAP1 JUMP JUMPDEST PUSH1 0x0 PUSH2 0xA78 PUSH2 0xA73 DUP5 PUSH2 0xEB1 JUMP JUMPDEST PUSH2 0xE8C JUMP JUMPDEST SWAP1 POP DUP3 DUP2 MSTORE PUSH1 0x20 DUP2 ADD DUP5 DUP5 DUP5 ADD GT ISZERO PUSH2 0xA94 JUMPI PUSH2 0xA93 PUSH2 0x115D JUMP JUMPDEST JUMPDEST PUSH2 0xA9F DUP5 DUP3 DUP6 PUSH2 0xFAE JUMP JUMPDEST POP SWAP4 SWAP3 POP POP POP JUMP JUMPDEST PUSH1 0x0 DUP2 CALLDATALOAD SWAP1 POP PUSH2 0xAB6 DUP2 PUSH2 0x126D JUMP JUMPDEST SWAP3 SWAP2 POP POP JUMP JUMPDEST PUSH1 0x0 DUP2 CALLDATALOAD SWAP1 POP PUSH2 0xACB DUP2 PUSH2 0x1284 JUMP JUMPDEST SWAP3 SWAP2 POP POP JUMP JUMPDEST PUSH1 0x0 DUP2 CALLDATALOAD SWAP1 POP PUSH2 0xAE0 DUP2 PUSH2 0x129B JUMP JUMPDEST SWAP3 SWAP2 POP POP JUMP JUMPDEST PUSH1 0x0 DUP3 PUSH1 0x1F DUP4 ADD SLT PUSH2 0xAFB JUMPI PUSH2 0xAFA PUSH2 0x1158 JUMP JUMPDEST JUMPDEST DUP2 CALLDATALOAD PUSH2 0xB0B DUP5 DUP3 PUSH1 0x20 DUP7 ADD PUSH2 0xA65 JUMP JUMPDEST SWAP2 POP POP SWAP3 SWAP2 POP POP JUMP JUMPDEST PUSH1 0x0 DUP2 CALLDATALOAD SWAP1 POP PUSH2 0xB23 DUP2 PUSH2 0x12B2 JUMP JUMPDEST SWAP3 SWAP2 POP POP JUMP JUMPDEST PUSH1 0x0 PUSH1 0x20 DUP3 DUP5 SUB SLT ISZERO PUSH2 0xB3F JUMPI PUSH2 0xB3E PUSH2 0x1167 JUMP JUMPDEST JUMPDEST PUSH1 0x0 PUSH2 0xB4D DUP5 DUP3 DUP6 ADD PUSH2 0xAA7 JUMP JUMPDEST SWAP2 POP POP SWAP3 SWAP2 POP POP JUMP JUMPDEST PUSH1 0x0 PUSH1 0x20 DUP3 DUP5 SUB SLT ISZERO PUSH2 0xB6C JUMPI PUSH2 0xB6B PUSH2 0x1167 JUMP JUMPDEST JUMPDEST PUSH1 0x0 PUSH2 0xB7A DUP5 DUP3 DUP6 ADD PUSH2 0xABC JUMP JUMPDEST SWAP2 POP POP SWAP3 SWAP2 POP POP JUMP JUMPDEST PUSH1 0x0 DUP1 PUSH1 0x0 DUP1 PUSH1 0x0 DUP1 PUSH1 0xC0 DUP8 DUP10 SUB SLT ISZERO PUSH2 0xBA0 JUMPI PUSH2 0xB9F PUSH2 0x1167 JUMP JUMPDEST JUMPDEST PUSH1 0x0 PUSH2 0xBAE DUP10 DUP3 DUP11 ADD PUSH2 0xABC JUMP JUMPDEST SWAP7 POP POP PUSH1 0x20 DUP8 ADD CALLDATALOAD PUSH8 0xFFFFFFFFFFFFFFFF DUP2 GT ISZERO PUSH2 0xBCF JUMPI PUSH2 0xBCE PUSH2 0x1162 JUMP JUMPDEST JUMPDEST PUSH2 0xBDB DUP10 DUP3 DUP11 ADD PUSH2 0xAE6 JUMP JUMPDEST SWAP6 POP POP PUSH1 0x40 DUP8 ADD CALLDATALOAD PUSH8 0xFFFFFFFFFFFFFFFF DUP2 GT ISZERO PUSH2 0xBFC JUMPI PUSH2 0xBFB PUSH2 0x1162 JUMP JUMPDEST JUMPDEST PUSH2 0xC08 DUP10 DUP3 DUP11 ADD PUSH2 0xAE6 JUMP JUMPDEST SWAP5 POP POP PUSH1 0x60 PUSH2 0xC19 DUP10 DUP3 DUP11 ADD PUSH2 0xB14 JUMP JUMPDEST SWAP4 POP POP PUSH1 0x80 PUSH2 0xC2A DUP10 DUP3 DUP11 ADD PUSH2 0xB14 JUMP JUMPDEST SWAP3 POP POP PUSH1 0xA0 PUSH2 0xC3B DUP10 DUP3 DUP11 ADD PUSH2 0xAD1 JUMP JUMPDEST SWAP2 POP POP SWAP3 SWAP6 POP SWAP3 SWAP6 POP SWAP3 SWAP6 JUMP JUMPDEST PUSH1 0x0 PUSH1 0x20 DUP3 DUP5 SUB SLT ISZERO PUSH2 0xC5E JUMPI PUSH2 0xC5D PUSH2 0x1167 JUMP JUMPDEST JUMPDEST PUSH1 0x0 PUSH2 0xC6C DUP5 DUP3 DUP6 ADD PUSH2 0xB14 JUMP JUMPDEST SWAP2 POP POP SWAP3 SWAP2 POP POP JUMP JUMPDEST PUSH2 0xC7E DUP2 PUSH2 0xF66 JUMP JUMPDEST DUP3 MSTORE POP POP JUMP JUMPDEST PUSH2 0xC8D DUP2 PUSH2 0xF78 JUMP JUMPDEST DUP3 MSTORE POP POP JUMP JUMPDEST PUSH1 0x0 PUSH2 0xC9E DUP3 PUSH2 0xEE2 JUMP JUMPDEST PUSH2 0xCA8 DUP2 DUP6 PUSH2 0xEED JUMP JUMPDEST SWAP4 POP PUSH2 0xCB8 DUP2 DUP6 PUSH1 0x20 DUP7 ADD PUSH2 0xFBD JUMP JUMPDEST PUSH2 0xCC1 DUP2 PUSH2 0x116C JUMP JUMPDEST DUP5 ADD SWAP2 POP POP SWAP3 SWAP2 POP POP JUMP JUMPDEST PUSH1 0x0 PUSH2 0xCD9 PUSH1 0x29 DUP4 PUSH2 0xEED JUMP JUMPDEST SWAP2 POP PUSH2 0xCE4 DUP3 PUSH2 0x117D JUMP JUMPDEST PUSH1 0x40 DUP3 ADD SWAP1 POP SWAP2 SWAP1 POP JUMP JUMPDEST PUSH1 0x0 PUSH2 0xCFC PUSH1 0x24 DUP4 PUSH2 0xEED JUMP JUMPDEST SWAP2 POP PUSH2 0xD07 DUP3 PUSH2 0x11CC JUMP JUMPDEST PUSH1 0x40 DUP3 ADD SWAP1 POP SWAP2 SWAP1 POP JUMP JUMPDEST PUSH1 0x0 PUSH2 0xD1F PUSH1 0x17 DUP4 PUSH2 0xEED JUMP JUMPDEST SWAP2 POP PUSH2 0xD2A DUP3 PUSH2 0x121B JUMP JUMPDEST PUSH1 0x20 DUP3 ADD SWAP1 POP SWAP2 SWAP1 POP JUMP JUMPDEST PUSH1 0x0 PUSH2 0xD42 PUSH1 0x1B DUP4 PUSH2 0xEED JUMP JUMPDEST SWAP2 POP PUSH2 0xD4D DUP3 PUSH2 0x1244 JUMP JUMPDEST PUSH1 0x20 DUP3 ADD SWAP1 POP SWAP2 SWAP1 POP JUMP JUMPDEST PUSH2 0xD61 DUP2 PUSH2 0xFA4 JUMP JUMPDEST DUP3 MSTORE POP POP JUMP JUMPDEST PUSH1 0x0 PUSH1 0xC0 DUP3 ADD SWAP1 POP PUSH2 0xD7C PUSH1 0x0 DUP4 ADD DUP10 PUSH2 0xC75 JUMP JUMPDEST DUP2 DUP2 SUB PUSH1 0x20 DUP4 ADD MSTORE PUSH2 0xD8E DUP2 DUP9 PUSH2 0xC93 JUMP JUMPDEST SWAP1 POP DUP2 DUP2 SUB PUSH1 0x40 DUP4 ADD MSTORE PUSH2 0xDA2 DUP2 DUP8 PUSH2 0xC93 JUMP JUMPDEST SWAP1 POP PUSH2 0xDB1 PUSH1 0x60 DUP4 ADD DUP7 PUSH2 0xD58 JUMP JUMPDEST PUSH2 0xDBE PUSH1 0x80 DUP4 ADD DUP6 PUSH2 0xD58 JUMP JUMPDEST PUSH2 0xDCB PUSH1 0xA0 DUP4 ADD DUP5 PUSH2 0xC84 JUMP JUMPDEST SWAP8 SWAP7 POP POP POP POP POP POP POP JUMP JUMPDEST PUSH1 0x0 PUSH1 0x20 DUP3 ADD SWAP1 POP PUSH2 0xDEB PUSH1 0x0 DUP4 ADD DUP5 PUSH2 0xC84 JUMP JUMPDEST SWAP3 SWAP2 POP POP JUMP JUMPDEST PUSH1 0x0 PUSH1 0x20 DUP3 ADD SWAP1 POP DUP2 DUP2 SUB PUSH1 0x0 DUP4 ADD MSTORE PUSH2 0xE0A DUP2 PUSH2 0xCCC JUMP JUMPDEST SWAP1 POP SWAP2 SWAP1 POP JUMP JUMPDEST PUSH1 0x0 PUSH1 0x20 DUP3 ADD SWAP1 POP DUP2 DUP2 SUB PUSH1 0x0 DUP4 ADD MSTORE PUSH2 0xE2A DUP2 PUSH2 0xCEF JUMP JUMPDEST SWAP1 POP SWAP2 SWAP1 POP JUMP JUMPDEST PUSH1 0x0 PUSH1 0x20 DUP3 ADD SWAP1 POP DUP2 DUP2 SUB PUSH1 0x0 DUP4 ADD MSTORE PUSH2 0xE4A DUP2 PUSH2 0xD12 JUMP JUMPDEST SWAP1 POP SWAP2 SWAP1 POP JUMP JUMPDEST PUSH1 0x0 PUSH1 0x20 DUP3 ADD SWAP1 POP DUP2 DUP2 SUB PUSH1 0x0 DUP4 ADD MSTORE PUSH2 0xE6A DUP2 PUSH2 0xD35 JUMP JUMPDEST SWAP1 POP SWAP2 SWAP1 POP JUMP JUMPDEST PUSH1 0x0 PUSH1 0x20 DUP3 ADD SWAP1 POP PUSH2 0xE86 PUSH1 0x0 DUP4 ADD DUP5 PUSH2 0xD58 JUMP JUMPDEST SWAP3 SWAP2 POP POP JUMP JUMPDEST PUSH1 0x0 PUSH2 0xE96 PUSH2 0xEA7 JUMP JUMPDEST SWAP1 POP PUSH2 0xEA2 DUP3 DUP3 PUSH2 0x1022 JUMP JUMPDEST SWAP2 SWAP1 POP JUMP JUMPDEST PUSH1 0x0 PUSH1 0x40 MLOAD SWAP1 POP SWAP1 JUMP JUMPDEST PUSH1 0x0 PUSH8 0xFFFFFFFFFFFFFFFF DUP3 GT ISZERO PUSH2 0xECC JUMPI PUSH2 0xECB PUSH2 0x1129 JUMP JUMPDEST JUMPDEST PUSH2 0xED5 DUP3 PUSH2 0x116C JUMP JUMPDEST SWAP1 POP PUSH1 0x20 DUP2 ADD SWAP1 POP SWAP2 SWAP1 POP JUMP JUMPDEST PUSH1 0x0 DUP2 MLOAD SWAP1 POP SWAP2 SWAP1 POP JUMP JUMPDEST PUSH1 0x0 DUP3 DUP3 MSTORE PUSH1 0x20 DUP3 ADD SWAP1 POP SWAP3 SWAP2 POP POP JUMP JUMPDEST PUSH1 0x0 PUSH2 0xF09 DUP3 PUSH2 0xFA4 JUMP JUMPDEST SWAP2 POP PUSH2 0xF14 DUP4 PUSH2 0xFA4 JUMP JUMPDEST SWAP3 POP DUP3 PUSH32 0xFFFFFFFFFFFFFFFFFFFFFFFFFFFFFFFFFFFFFFFFFFFFFFFFFFFFFFFFFFFFFFFF SUB DUP3 GT ISZERO PUSH2 0xF49 JUMPI PUSH2 0xF48 PUSH2 0x109C JUMP JUMPDEST JUMPDEST DUP3 DUP3 ADD SWAP1 POP SWAP3 SWAP2 POP POP JUMP JUMPDEST PUSH1 0x0 PUSH2 0xF5F DUP3 PUSH2 0xF84 JUMP JUMPDEST SWAP1 POP SWAP2 SWAP1 POP JUMP JUMPDEST PUSH1 0x0 PUSH2 0xF71 DUP3 PUSH2 0xF84 JUMP JUMPDEST SWAP1 POP SWAP2 SWAP1 POP JUMP JUMPDEST PUSH1 0x0 DUP2 ISZERO ISZERO SWAP1 POP SWAP2 SWAP1 POP JUMP JUMPDEST PUSH1 0x0 PUSH20 0xFFFFFFFFFFFFFFFFFFFFFFFFFFFFFFFFFFFFFFFF DUP3 AND SWAP1 POP SWAP2 SWAP1 POP JUMP JUMPDEST PUSH1 0x0 DUP2 SWAP1 POP SWAP2 SWAP1 POP JUMP JUMPDEST DUP3 DUP2 DUP4 CALLDATACOPY PUSH1 0x0 DUP4 DUP4 ADD MSTORE POP POP POP JUMP JUMPDEST PUSH1 0x0 JUMPDEST DUP4 DUP2 LT ISZERO PUSH2 0xFDB JUMPI DUP1 DUP3 ADD MLOAD DUP2 DUP5 ADD MSTORE PUSH1 0x20 DUP2 ADD SWAP1 POP PUSH2 0xFC0 JUMP JUMPDEST DUP4 DUP2 GT ISZERO PUSH2 0xFEA JUMPI PUSH1 0x0 DUP5 DUP5 ADD MSTORE JUMPDEST POP POP POP POP JUMP JUMPDEST PUSH1 0x0 PUSH1 0x2 DUP3 DIV SWAP1 POP PUSH1 0x1 DUP3 AND DUP1 PUSH2 0x1008 JUMPI PUSH1 0x7F DUP3 AND SWAP2 POP JUMPDEST PUSH1 0x20 DUP3 LT DUP2 EQ ISZERO PUSH2 0x101C JUMPI PUSH2 0x101B PUSH2 0x10CB JUMP JUMPDEST JUMPDEST POP SWAP2 SWAP1 POP JUMP JUMPDEST PUSH2 0x102B DUP3 PUSH2 0x116C JUMP JUMPDEST DUP2 ADD DUP2 DUP2 LT PUSH8 0xFFFFFFFFFFFFFFFF DUP3 GT OR ISZERO PUSH2 0x104A JUMPI PUSH2 0x1049 PUSH2 0x1129 JUMP JUMPDEST JUMPDEST DUP1 PUSH1 0x40 MSTORE POP POP POP JUMP JUMPDEST PUSH1 0x0 PUSH2 0x105E DUP3 PUSH2 0xFA4 JUMP JUMPDEST SWAP2 POP PUSH32 0xFFFFFFFFFFFFFFFFFFFFFFFFFFFFFFFFFFFFFFFFFFFFFFFFFFFFFFFFFFFFFFFF DUP3 EQ ISZERO PUSH2 0x1091 JUMPI PUSH2 0x1090 PUSH2 0x109C JUMP JUMPDEST JUMPDEST PUSH1 0x1 DUP3 ADD SWAP1 POP SWAP2 SWAP1 POP JUMP JUMPDEST PUSH32 0x4E487B7100000000000000000000000000000000000000000000000000000000 PUSH1 0x0 MSTORE PUSH1 0x11 PUSH1 0x4 MSTORE PUSH1 0x24 PUSH1 0x0 REVERT JUMPDEST PUSH32 0x4E487B7100000000000000000000000000000000000000000000000000000000 PUSH1 0x0 MSTORE PUSH1 0x22 PUSH1 0x4 MSTORE PUSH1 0x24 PUSH1 0x0 REVERT JUMPDEST PUSH32 0x4E487B7100000000000000000000000000000000000000000000000000000000 PUSH1 0x0 MSTORE PUSH1 0x32 PUSH1 0x4 MSTORE PUSH1 0x24 PUSH1 0x0 REVERT JUMPDEST PUSH32 0x4E487B7100000000000000000000000000000000000000000000000000000000 PUSH1 0x0 MSTORE PUSH1 0x41 PUSH1 0x4 MSTORE PUSH1 0x24 PUSH1 0x0 REVERT JUMPDEST PUSH1 0x0 DUP1 REVERT JUMPDEST PUSH1 0x0 DUP1 REVERT JUMPDEST PUSH1 0x0 DUP1 REVERT JUMPDEST PUSH1 0x0 DUP1 REVERT JUMPDEST PUSH1 0x0 PUSH1 0x1F NOT PUSH1 0x1F DUP4 ADD AND SWAP1 POP SWAP2 SWAP1 POP JUMP JUMPDEST PUSH32 0x596F7520617265206E6F742061626C6520746F20776974686472617720617420 PUSH1 0x0 DUP3 ADD MSTORE PUSH32 0x746869732074696D650000000000000000000000000000000000000000000000 PUSH1 0x20 DUP3 ADD MSTORE POP JUMP JUMPDEST PUSH32 0x596F752063616E2774207769746872617720736F6D656F6E6520656C7365206D PUSH1 0x0 DUP3 ADD MSTORE PUSH32 0x6F6E657900000000000000000000000000000000000000000000000000000000 PUSH1 0x20 DUP3 ADD MSTORE POP JUMP JUMPDEST PUSH32 0x596F752063616E6E6F74207769746864726177206E6F77000000000000000000 PUSH1 0x0 DUP3 ADD MSTORE POP JUMP JUMPDEST PUSH32 0x4F6E6C7920746865206F776E65722063616E20616464206B6964730000000000 PUSH1 0x0 DUP3 ADD MSTORE POP JUMP JUMPDEST PUSH2 0x1276 DUP2 PUSH2 0xF54 JUMP JUMPDEST DUP2 EQ PUSH2 0x1281 JUMPI PUSH1 0x0 DUP1 REVERT JUMPDEST POP JUMP JUMPDEST PUSH2 0x128D DUP2 PUSH2 0xF66 JUMP JUMPDEST DUP2 EQ PUSH2 0x1298 JUMPI PUSH1 0x0 DUP1 REVERT JUMPDEST POP JUMP JUMPDEST PUSH2 0x12A4 DUP2 PUSH2 0xF78 JUMP JUMPDEST DUP2 EQ PUSH2 0x12AF JUMPI PUSH1 0x0 DUP1 REVERT JUMPDEST POP JUMP JUMPDEST PUSH2 0x12BB DUP2 PUSH2 0xFA4 JUMP JUMPDEST DUP2 EQ PUSH2 0x12C6 JUMPI PUSH1 0x0 DUP1 REVERT JUMPDEST POP JUMP INVALID LOG2 PUSH5 0x6970667358 0x22 SLT KECCAK256 DELEGATECALL 0x4C LOG3 EXTCODEHASH DUP16 0xD6 0xE2 0xAD 0xE9 RETURNDATACOPY 0xD6 PUSH1 0x25 0xD5 SWAP10 DIFFICULTY SHR SWAP2 0xF7 0xD8 PUSH14 0xA7D86386288DE1AB28F42464736F PUSH13 0x63430008070033000000000000 "
				},
				"gasEstimates": {
					"creation": {
						"codeDepositCost": "972600",
						"executionCost": "25274",
						"totalCost": "997874"
					},
					"external": {
						"addKid(address,string,string,uint256,uint256,bool)": "infinite",
						"availableToWithdraw(address)": "infinite",
						"balanceOf()": "361",
						"deposit(address)": "infinite",
						"kids(uint256)": "infinite",
						"withdraw(address)": "infinite"
					},
					"internal": {
						"addToKidsBalance(address)": "infinite",
						"getIndex(address)": "infinite"
					}
				},
				"methodIdentifiers": {
					"addKid(address,string,string,uint256,uint256,bool)": "31d575c5",
					"availableToWithdraw(address)": "a25db8ce",
					"balanceOf()": "722713f7",
					"deposit(address)": "f340fa01",
					"kids(uint256)": "7285fd3a",
					"withdraw(address)": "51cff8d9"
				}
			},
			"storageLayout": {
				"storage": [
					{
						"astId": 3,
						"contract": "contracts/criptoKids.sol:CryptoKids",
						"label": "owner",
						"offset": 0,
						"slot": "0",
						"type": "t_address"
					},
					{
						"astId": 37,
						"contract": "contracts/criptoKids.sol:CryptoKids",
						"label": "kids",
						"offset": 0,
						"slot": "1",
						"type": "t_array(t_struct(Kid)33_storage)dyn_storage"
					}
				],
				"types": {
					"t_address": {
						"encoding": "inplace",
						"label": "address",
						"numberOfBytes": "20"
					},
					"t_address_payable": {
						"encoding": "inplace",
						"label": "address payable",
						"numberOfBytes": "20"
					},
					"t_array(t_struct(Kid)33_storage)dyn_storage": {
						"base": "t_struct(Kid)33_storage",
						"encoding": "dynamic_array",
						"label": "struct CryptoKids.Kid[]",
						"numberOfBytes": "32"
					},
					"t_bool": {
						"encoding": "inplace",
						"label": "bool",
						"numberOfBytes": "1"
					},
					"t_string_storage": {
						"encoding": "bytes",
						"label": "string",
						"numberOfBytes": "32"
					},
					"t_struct(Kid)33_storage": {
						"encoding": "inplace",
						"label": "struct CryptoKids.Kid",
						"members": [
							{
								"astId": 22,
								"contract": "contracts/criptoKids.sol:CryptoKids",
								"label": "walletAddress",
								"offset": 0,
								"slot": "0",
								"type": "t_address_payable"
							},
							{
								"astId": 24,
								"contract": "contracts/criptoKids.sol:CryptoKids",
								"label": "firstName",
								"offset": 0,
								"slot": "1",
								"type": "t_string_storage"
							},
							{
								"astId": 26,
								"contract": "contracts/criptoKids.sol:CryptoKids",
								"label": "lastName",
								"offset": 0,
								"slot": "2",
								"type": "t_string_storage"
							},
							{
								"astId": 28,
								"contract": "contracts/criptoKids.sol:CryptoKids",
								"label": "releaseTime",
								"offset": 0,
								"slot": "3",
								"type": "t_uint256"
							},
							{
								"astId": 30,
								"contract": "contracts/criptoKids.sol:CryptoKids",
								"label": "amount",
								"offset": 0,
								"slot": "4",
								"type": "t_uint256"
							},
							{
								"astId": 32,
								"contract": "contracts/criptoKids.sol:CryptoKids",
								"label": "canWithdraw",
								"offset": 0,
								"slot": "5",
								"type": "t_bool"
							}
						],
						"numberOfBytes": "192"
					},
					"t_uint256": {
						"encoding": "inplace",
						"label": "uint256",
						"numberOfBytes": "32"
					}
				}
			},
			"userdoc": {
				"kind": "user",
				"methods": {},
				"version": 1
			}
		}
	}
}